{
  "contracts/PioneLiquidityManager.sol": {
    "PioneLiquidityManager": {
      "abi": [
        {
          "inputs": [
            {
              "internalType": "address",
              "name": "_pioneToken",
              "type": "address"
            },
            {
              "internalType": "address",
              "name": "_usdtToken",
              "type": "address"
            },
            {
              "internalType": "address",
              "name": "_pioneBridge",
              "type": "address"
            },
            {
              "internalType": "address",
              "name": "_router",
              "type": "address"
            },
            {
              "internalType": "address",
              "name": "_pinklock",
              "type": "address"
            }
          ],
          "stateMutability": "nonpayable",
          "type": "constructor"
        },
        {
          "inputs": [],
          "name": "AccessControlBadConfirmation",
          "type": "error"
        },
        {
          "inputs": [
            {
              "internalType": "address",
              "name": "account",
              "type": "address"
            },
            {
              "internalType": "bytes32",
              "name": "neededRole",
              "type": "bytes32"
            }
          ],
          "name": "AccessControlUnauthorizedAccount",
          "type": "error"
        },
        {
          "inputs": [],
          "name": "EnforcedPause",
          "type": "error"
        },
        {
          "inputs": [],
          "name": "ExpectedPause",
          "type": "error"
        },
        {
          "inputs": [],
          "name": "ReentrancyGuardReentrantCall",
          "type": "error"
        },
        {
          "inputs": [
            {
              "internalType": "address",
              "name": "token",
              "type": "address"
            }
          ],
          "name": "SafeERC20FailedOperation",
          "type": "error"
        },
        {
          "anonymous": false,
          "inputs": [
            {
              "indexed": true,
              "internalType": "bytes32",
              "name": "requestId",
              "type": "bytes32"
            },
            {
              "indexed": true,
              "internalType": "address",
              "name": "user",
              "type": "address"
            },
            {
              "indexed": false,
              "internalType": "uint256",
              "name": "index",
              "type": "uint256"
            }
          ],
          "name": "BridgeCompleted",
          "type": "event"
        },
        {
          "anonymous": false,
          "inputs": [
            {
              "indexed": true,
              "internalType": "bytes32",
              "name": "requestId",
              "type": "bytes32"
            },
            {
              "indexed": true,
              "internalType": "address",
              "name": "user",
              "type": "address"
            },
            {
              "indexed": false,
              "internalType": "uint256",
              "name": "amount",
              "type": "uint256"
            }
          ],
          "name": "ClaimedPIOtoPioneChain",
          "type": "event"
        },
        {
          "anonymous": false,
          "inputs": [
            {
              "indexed": true,
              "internalType": "address",
              "name": "account",
              "type": "address"
            },
            {
              "indexed": false,
              "internalType": "uint256",
              "name": "amount",
              "type": "uint256"
            }
          ],
          "name": "ClaimedUSDT",
          "type": "event"
        },
        {
          "anonymous": false,
          "inputs": [
            {
              "indexed": true,
              "internalType": "address",
              "name": "user",
              "type": "address"
            },
            {
              "indexed": true,
              "internalType": "bytes32",
              "name": "requestId",
              "type": "bytes32"
            },
            {
              "indexed": false,
              "internalType": "uint256",
              "name": "pioAmount",
              "type": "uint256"
            },
            {
              "indexed": false,
              "internalType": "uint256",
              "name": "usdtAmount",
              "type": "uint256"
            },
            {
              "indexed": false,
              "internalType": "uint256",
              "name": "liquidity",
              "type": "uint256"
            },
            {
              "indexed": false,
              "internalType": "uint256",
              "name": "slippage",
              "type": "uint256"
            }
          ],
          "name": "LiquidityAdded",
          "type": "event"
        },
        {
          "anonymous": false,
          "inputs": [
            {
              "indexed": true,
              "internalType": "address",
              "name": "user",
              "type": "address"
            },
            {
              "indexed": true,
              "internalType": "bytes32",
              "name": "requestId",
              "type": "bytes32"
            },
            {
              "indexed": false,
              "internalType": "uint256",
              "name": "lockId",
              "type": "uint256"
            },
            {
              "indexed": false,
              "internalType": "uint256",
              "name": "liquidity",
              "type": "uint256"
            },
            {
              "indexed": false,
              "internalType": "uint256",
              "name": "unlockDate",
              "type": "uint256"
            }
          ],
          "name": "LiquidityLocked",
          "type": "event"
        },
        {
          "anonymous": false,
          "inputs": [
            {
              "indexed": false,
              "internalType": "address",
              "name": "account",
              "type": "address"
            }
          ],
          "name": "Paused",
          "type": "event"
        },
        {
          "anonymous": false,
          "inputs": [
            {
              "indexed": true,
              "internalType": "address",
              "name": "oldAddress",
              "type": "address"
            },
            {
              "indexed": true,
              "internalType": "address",
              "name": "newAddress",
              "type": "address"
            }
          ],
          "name": "PioneBridgeUpdated",
          "type": "event"
        },
        {
          "anonymous": false,
          "inputs": [
            {
              "indexed": true,
              "internalType": "bytes32",
              "name": "role",
              "type": "bytes32"
            },
            {
              "indexed": true,
              "internalType": "bytes32",
              "name": "previousAdminRole",
              "type": "bytes32"
            },
            {
              "indexed": true,
              "internalType": "bytes32",
              "name": "newAdminRole",
              "type": "bytes32"
            }
          ],
          "name": "RoleAdminChanged",
          "type": "event"
        },
        {
          "anonymous": false,
          "inputs": [
            {
              "indexed": true,
              "internalType": "bytes32",
              "name": "role",
              "type": "bytes32"
            },
            {
              "indexed": true,
              "internalType": "address",
              "name": "account",
              "type": "address"
            },
            {
              "indexed": true,
              "internalType": "address",
              "name": "sender",
              "type": "address"
            }
          ],
          "name": "RoleGranted",
          "type": "event"
        },
        {
          "anonymous": false,
          "inputs": [
            {
              "indexed": true,
              "internalType": "bytes32",
              "name": "role",
              "type": "bytes32"
            },
            {
              "indexed": true,
              "internalType": "address",
              "name": "account",
              "type": "address"
            },
            {
              "indexed": true,
              "internalType": "address",
              "name": "sender",
              "type": "address"
            }
          ],
          "name": "RoleRevoked",
          "type": "event"
        },
        {
          "anonymous": false,
          "inputs": [
            {
              "indexed": false,
              "internalType": "address",
              "name": "account",
              "type": "address"
            }
          ],
          "name": "Unpaused",
          "type": "event"
        },
        {
          "anonymous": false,
          "inputs": [
            {
              "indexed": false,
              "internalType": "uint256",
              "name": "oldAmount",
              "type": "uint256"
            },
            {
              "indexed": false,
              "internalType": "uint256",
              "name": "newAmount",
              "type": "uint256"
            }
          ],
          "name": "UpdatedMinClaimPIOAmount",
          "type": "event"
        },
        {
          "anonymous": false,
          "inputs": [
            {
              "indexed": true,
              "internalType": "bytes32",
              "name": "requestId",
              "type": "bytes32"
            },
            {
              "indexed": true,
              "internalType": "address",
              "name": "user",
              "type": "address"
            },
            {
              "indexed": false,
              "internalType": "uint256",
              "name": "amount",
              "type": "uint256"
            }
          ],
          "name": "UserDepositUSDT",
          "type": "event"
        },
        {
          "inputs": [],
          "name": "DEFAULT_ADMIN_ROLE",
          "outputs": [
            {
              "internalType": "bytes32",
              "name": "",
              "type": "bytes32"
            }
          ],
          "stateMutability": "view",
          "type": "function"
        },
        {
          "inputs": [],
          "name": "LP_PAIR",
          "outputs": [
            {
              "internalType": "address",
              "name": "",
              "type": "address"
            }
          ],
          "stateMutability": "view",
          "type": "function"
        },
        {
          "inputs": [],
          "name": "MANAGER_ROLE",
          "outputs": [
            {
              "internalType": "bytes32",
              "name": "",
              "type": "bytes32"
            }
          ],
          "stateMutability": "view",
          "type": "function"
        },
        {
          "inputs": [],
          "name": "PIONE_TOKEN",
          "outputs": [
            {
              "internalType": "address",
              "name": "",
              "type": "address"
            }
          ],
          "stateMutability": "view",
          "type": "function"
        },
        {
          "inputs": [],
          "name": "POOL_LOCK",
          "outputs": [
            {
              "internalType": "address",
              "name": "",
              "type": "address"
            }
          ],
          "stateMutability": "view",
          "type": "function"
        },
        {
          "inputs": [],
          "name": "USDT_TOKEN",
          "outputs": [
            {
              "internalType": "address",
              "name": "",
              "type": "address"
            }
          ],
          "stateMutability": "view",
          "type": "function"
        },
        {
          "inputs": [
            {
              "internalType": "bytes32",
              "name": "requestId",
              "type": "bytes32"
            },
            {
              "internalType": "uint256",
              "name": "slippagePercent",
              "type": "uint256"
            }
          ],
          "name": "addLiquidity",
          "outputs": [
            {
              "internalType": "bool",
              "name": "",
              "type": "bool"
            }
          ],
          "stateMutability": "nonpayable",
          "type": "function"
        },
        {
          "inputs": [
            {
              "internalType": "uint256",
              "name": "amount",
              "type": "uint256"
            }
          ],
          "name": "claimPioToPioneChain",
          "outputs": [
            {
              "internalType": "bool",
              "name": "",
              "type": "bool"
            }
          ],
          "stateMutability": "nonpayable",
          "type": "function"
        },
        {
          "inputs": [
            {
              "internalType": "uint256",
              "name": "amount",
              "type": "uint256"
            }
          ],
          "name": "claimUSDT",
          "outputs": [
            {
              "internalType": "bool",
              "name": "",
              "type": "bool"
            }
          ],
          "stateMutability": "nonpayable",
          "type": "function"
        },
        {
          "inputs": [
            {
              "internalType": "bytes32",
              "name": "requestId",
              "type": "bytes32"
            }
          ],
          "name": "depositUSDT",
          "outputs": [
            {
              "internalType": "bool",
              "name": "",
              "type": "bool"
            }
          ],
          "stateMutability": "nonpayable",
          "type": "function"
        },
        {
          "inputs": [],
          "name": "getMinClaimPIOAmount",
          "outputs": [
            {
              "internalType": "uint256",
              "name": "",
              "type": "uint256"
            }
          ],
          "stateMutability": "view",
          "type": "function"
        },
        {
          "inputs": [
            {
              "internalType": "uint256",
              "name": "usdtAmount",
              "type": "uint256"
            }
          ],
          "name": "getOptimalAmountPIO",
          "outputs": [
            {
              "internalType": "uint256",
              "name": "optimalPioAmount",
              "type": "uint256"
            }
          ],
          "stateMutability": "view",
          "type": "function"
        },
        {
          "inputs": [
            {
              "internalType": "uint256",
              "name": "pioAmount",
              "type": "uint256"
            }
          ],
          "name": "getOptimalAmountUSDT",
          "outputs": [
            {
              "internalType": "uint256",
              "name": "optimalUsdtAmount",
              "type": "uint256"
            }
          ],
          "stateMutability": "view",
          "type": "function"
        },
        {
          "inputs": [
            {
              "internalType": "bytes32",
              "name": "requestId",
              "type": "bytes32"
            }
          ],
          "name": "getRequestIdOwner",
          "outputs": [
            {
              "internalType": "address",
              "name": "",
              "type": "address"
            }
          ],
          "stateMutability": "view",
          "type": "function"
        },
        {
          "inputs": [],
          "name": "getReserves",
          "outputs": [
            {
              "internalType": "uint256",
              "name": "reserveUsdt",
              "type": "uint256"
            },
            {
              "internalType": "uint256",
              "name": "reservePione",
              "type": "uint256"
            }
          ],
          "stateMutability": "view",
          "type": "function"
        },
        {
          "inputs": [
            {
              "internalType": "bytes32",
              "name": "role",
              "type": "bytes32"
            }
          ],
          "name": "getRoleAdmin",
          "outputs": [
            {
              "internalType": "bytes32",
              "name": "",
              "type": "bytes32"
            }
          ],
          "stateMutability": "view",
          "type": "function"
        },
        {
          "inputs": [
            {
              "internalType": "bytes32",
              "name": "requestId",
              "type": "bytes32"
            }
          ],
          "name": "getTransactionInfo",
          "outputs": [
            {
              "internalType": "uint256",
              "name": "pioAmount",
              "type": "uint256"
            },
            {
              "internalType": "uint256",
              "name": "usdtAmount",
              "type": "uint256"
            },
            {
              "internalType": "uint256",
              "name": "liquidityAmount",
              "type": "uint256"
            },
            {
              "internalType": "bool",
              "name": "_depositUSDT",
              "type": "bool"
            },
            {
              "internalType": "uint256",
              "name": "pinkLockId",
              "type": "uint256"
            },
            {
              "internalType": "uint256",
              "name": "lockMonths",
              "type": "uint256"
            }
          ],
          "stateMutability": "view",
          "type": "function"
        },
        {
          "inputs": [
            {
              "internalType": "address",
              "name": "account",
              "type": "address"
            }
          ],
          "name": "getUserBalances",
          "outputs": [
            {
              "internalType": "uint256",
              "name": "pioBalance",
              "type": "uint256"
            },
            {
              "internalType": "uint256",
              "name": "usdtBalance",
              "type": "uint256"
            }
          ],
          "stateMutability": "view",
          "type": "function"
        },
        {
          "inputs": [
            {
              "internalType": "bytes32",
              "name": "role",
              "type": "bytes32"
            },
            {
              "internalType": "address",
              "name": "account",
              "type": "address"
            }
          ],
          "name": "grantRole",
          "outputs": [],
          "stateMutability": "nonpayable",
          "type": "function"
        },
        {
          "inputs": [
            {
              "internalType": "bytes32",
              "name": "requestId",
              "type": "bytes32"
            },
            {
              "internalType": "address",
              "name": "account",
              "type": "address"
            },
            {
              "internalType": "uint256",
              "name": "amountPIO",
              "type": "uint256"
            },
            {
              "internalType": "uint256",
              "name": "amountUSDT",
              "type": "uint256"
            },
            {
              "internalType": "uint256",
              "name": "lockMonths",
              "type": "uint256"
            }
          ],
          "name": "handleBridgeCompleted",
          "outputs": [],
          "stateMutability": "nonpayable",
          "type": "function"
        },
        {
          "inputs": [
            {
              "internalType": "bytes32",
              "name": "role",
              "type": "bytes32"
            },
            {
              "internalType": "address",
              "name": "account",
              "type": "address"
            }
          ],
          "name": "hasRole",
          "outputs": [
            {
              "internalType": "bool",
              "name": "",
              "type": "bool"
            }
          ],
          "stateMutability": "view",
          "type": "function"
        },
        {
          "inputs": [],
          "name": "pause",
          "outputs": [],
          "stateMutability": "nonpayable",
          "type": "function"
        },
        {
          "inputs": [],
          "name": "paused",
          "outputs": [
            {
              "internalType": "bool",
              "name": "",
              "type": "bool"
            }
          ],
          "stateMutability": "view",
          "type": "function"
        },
        {
          "inputs": [],
          "name": "pioneBridge",
          "outputs": [
            {
              "internalType": "address",
              "name": "",
              "type": "address"
            }
          ],
          "stateMutability": "view",
          "type": "function"
        },
        {
          "inputs": [
            {
              "internalType": "uint256",
              "name": "pioneAmount",
              "type": "uint256"
            },
            {
              "internalType": "uint256",
              "name": "usdtAmount",
              "type": "uint256"
            }
          ],
          "name": "previewAddLiquidity",
          "outputs": [
            {
              "internalType": "uint256",
              "name": "actualPioAmount",
              "type": "uint256"
            },
            {
              "internalType": "uint256",
              "name": "actualUsdtAmount",
              "type": "uint256"
            },
            {
              "internalType": "uint256",
              "name": "estimatedLiquidity",
              "type": "uint256"
            },
            {
              "internalType": "uint256",
              "name": "refundPio",
              "type": "uint256"
            },
            {
              "internalType": "uint256",
              "name": "refundUsdt",
              "type": "uint256"
            }
          ],
          "stateMutability": "view",
          "type": "function"
        },
        {
          "inputs": [
            {
              "internalType": "bytes32",
              "name": "role",
              "type": "bytes32"
            },
            {
              "internalType": "address",
              "name": "callerConfirmation",
              "type": "address"
            }
          ],
          "name": "renounceRole",
          "outputs": [],
          "stateMutability": "nonpayable",
          "type": "function"
        },
        {
          "inputs": [
            {
              "internalType": "bytes32",
              "name": "role",
              "type": "bytes32"
            },
            {
              "internalType": "address",
              "name": "account",
              "type": "address"
            }
          ],
          "name": "revokeRole",
          "outputs": [],
          "stateMutability": "nonpayable",
          "type": "function"
        },
        {
          "inputs": [],
          "name": "router",
          "outputs": [
            {
              "internalType": "contract IPancakeRouter02",
              "name": "",
              "type": "address"
            }
          ],
          "stateMutability": "view",
          "type": "function"
        },
        {
          "inputs": [
            {
              "internalType": "uint256",
              "name": "minAmount",
              "type": "uint256"
            }
          ],
          "name": "setMinClaimPIOAmount",
          "outputs": [],
          "stateMutability": "nonpayable",
          "type": "function"
        },
        {
          "inputs": [
            {
              "internalType": "address",
              "name": "_pioneBridge",
              "type": "address"
            }
          ],
          "name": "setPioneBridge",
          "outputs": [],
          "stateMutability": "nonpayable",
          "type": "function"
        },
        {
          "inputs": [
            {
              "internalType": "bytes4",
              "name": "interfaceId",
              "type": "bytes4"
            }
          ],
          "name": "supportsInterface",
          "outputs": [
            {
              "internalType": "bool",
              "name": "",
              "type": "bool"
            }
          ],
          "stateMutability": "view",
          "type": "function"
        },
        {
          "inputs": [],
          "name": "unpause",
          "outputs": [],
          "stateMutability": "nonpayable",
          "type": "function"
        }
      ],
      "evm": {
        "bytecode": {
          "linkReferences": {},
          "object": "61010080604052346103545760a08161292580380380916100208285610408565b8339810103126103545761003381610441565b9061004060208201610441565b9161004d60408301610441565b92610066608061005f60608601610441565b9401610441565b6001600255916001600160a01b0381161515806103f6575b806103e4575b806103d2575b1561039b5760805260a05260e052600380546001600160a01b0319166001600160a01b03831690811790915560405163c45a015560e01b815290602090829060049082905afa9081156102b657600091610361575b5060805160a05160405163e6a4390560e01b81526001600160a01b03928316600482015290821660248201529160209183916044918391165afa9081156102b657600091610322575b5060c08190526001600160a01b0316156102dd5760805160405163095ea7b360e01b81526001600160a01b0383811660048301526000196024830152909160209183916044918391600091165af180156102b6576000926020926101c7926102c2575b5060a05160405163095ea7b360e01b81526001600160a01b03928316600482015260001960248201529485939190921691839182906044820190565b03925af180156102b657610289575b506101e03361046d565b506101ea336104e9565b50600480546001600160a01b0319166001600160a01b0392909216919091179055670de0b6b3a7640000600555604051612343908161058282396080518181816102a20152611303015260a05181818161040d0152818161073c01528181610ec9015281816113310152611e82015260c0518181816105660152818161145401528181611afc0152611dfc015260e05181818161109b015261141c0152f35b6102aa9060203d6020116102af575b6102a28183610408565b810190610455565b6101d6565b503d610298565b6040513d6000823e3d90fd5b6102d890843d86116102af576102a28183610408565b61018b565b60405162461bcd60e51b815260206004820152601660248201527f4c50207061697220646f6573206e6f74206578697374000000000000000000006044820152606490fd5b90506020813d602011610359575b8161033d60209383610408565b810103126103545761034e90610441565b38610128565b600080fd5b3d9150610330565b90506020813d602011610393575b8161037c60209383610408565b810103126103545761038d90610441565b386100df565b3d915061036f565b60405162461bcd60e51b815260206004820152600f60248201526e496e76616c6964206164647265737360881b6044820152606490fd5b506001600160a01b038316151561008a565b506001600160a01b0384161515610084565b506001600160a01b038216151561007e565b601f909101601f19168101906001600160401b0382119082101761042b57604052565b634e487b7160e01b600052604160045260246000fd5b51906001600160a01b038216820361035457565b90816020910312610354575180151581036103545790565b6001600160a01b0381166000908152600080516020612905833981519152602052604090205460ff166104e3576001600160a01b0316600081815260008051602061290583398151915260205260408120805460ff191660011790553391906000805160206128c58339815191528180a4600190565b50600090565b6001600160a01b03811660009081526000805160206128e5833981519152602052604090205460ff166104e3576001600160a01b031660008181526000805160206128e583398151915260205260408120805460ff191660011790553391907f241ecf16d79d0f8dbfb92cbc07fe17840425976cf0667f022fe9877caa831b08906000805160206128c58339815191529080a460019056fe608080604052600436101561001357600080fd5b60003560e01c90816301ffc9a714611d38575080630902f1ac14611d115780630947152814611cf35780631147010314611c955780631cdf2dc314611a57578063248a9ca314611a225780632f2ff15d146119e257806336568abe1461199c5780633b57e2bc146111545780633f4ba83a146110ca578063449b53921461108557806349e6b62c14610f825780634e46d25914610d8f5780635585a6fa14610a325780635c975abb14610a0f5780636eba86a214610844578063721c8c0a1461076b57806377b330c91461072657806378bb5dbd1461065c5780638456cb59146105e257806391d148541461059557806393a013e014610550578063a217fddf14610534578063abd3f612146104f1578063b0f9006a1461038c578063bc339809146102d1578063d344f1b91461028c578063d547741f14610245578063ec87621c1461020a578063edc73dbc146101e1578063f4627a11146101ad5763f887ea401461017f57600080fd5b346101a85760003660031901126101a8576003546040516001600160a01b039091168152602090f35b600080fd5b346101a85760203660031901126101a8576004356000526007602052602060018060a01b0360406000205416604051908152f35b346101a85760003660031901126101a8576004546040516001600160a01b039091168152602090f35b346101a85760003660031901126101a85760206040517f241ecf16d79d0f8dbfb92cbc07fe17840425976cf0667f022fe9877caa831b088152f35b346101a85760403660031901126101a85761028a600435610264611d8b565b9061028561028082600052600060205260016040600020015490565b6120d9565b61219f565b005b346101a85760003660031901126101a8576040517f00000000000000000000000000000000000000000000000000000000000000006001600160a01b03168152602090f35b346101a85760203660031901126101a85761033060206102ef611ded565b600354604051632b58577b60e21b8152600480359082015260248101939093526044830191909152909283916001600160a01b031690829081906064820190565b03915afa80156103805760009061034d575b602090604051908152f35b506020813d602011610378575b8161036760209383611db7565b810103126101a85760209051610342565b3d915061035a565b6040513d6000823e3d90fd5b346101a85760203660031901126101a8576004356103a8612261565b6103b0612221565b80156104bb573360005260066020526001604060002001805482811061047657826103da91611f50565b905560405163a9059cbb60e01b60208201523360248201526044808201839052815261043a9061040b606482611db7565b7f00000000000000000000000000000000000000000000000000000000000000006001600160a01b0316612292565b6040519081527f4a871023ddab2a4d3bfcfeeeca493e98d3ef746b67db88347ad53d14f6a532bd60203392a26001600255602060405160018152f35b60405162461bcd60e51b815260206004820152601960248201527f496e73756666696369656e742062616c616e63652055534454000000000000006044820152606490fd5b60405162461bcd60e51b815260206004820152600e60248201526d1a5b9d985b1a5908185b5bdd5b9d60921b6044820152606490fd5b346101a85760203660031901126101a8576001600160a01b03610512611da1565b1660005260066020526040806000206001815491015482519182526020820152f35b346101a85760003660031901126101a857602060405160008152f35b346101a85760003660031901126101a8576040517f00000000000000000000000000000000000000000000000000000000000000006001600160a01b03168152602090f35b346101a85760403660031901126101a8576105ae611d8b565b600435600052600060205260406000209060018060a01b0316600052602052602060ff604060002054166040519015158152f35b346101a85760003660031901126101a8573360009081526000805160206122ee833981519152602052604090205461061c9060ff1661207c565b610624612221565b600160ff19815416176001557f62e78cea01bee320cd4e420270b5ea74000d11b0c9f74754ebdbfc544b05a2586020604051338152a1005b346101a85760203660031901126101a8573360009081526000805160206122ee83398151915260205260409020546004359061069a9060ff1661207c565b80156106d7577fb29db3ed4be00bb9125746733a49fa8e4bc0d6c1cba2d0e3c0b3d72801c2752760406005548151908152836020820152a1600555005b60405162461bcd60e51b815260206004820152602160248201527f4d696e20616d6f756e74206d7573742062652067726561746572207468616e206044820152600360fc1b6064820152608490fd5b346101a85760003660031901126101a8576040517f00000000000000000000000000000000000000000000000000000000000000006001600160a01b03168152602090f35b346101a85760203660031901126101a857610784611da1565b3360009081526000805160206122ee83398151915260205260409020546107ad9060ff1661207c565b6001600160a01b031680156107ff57600454816001600160a01b0382167fec54b369953ed98493762cc0b6b40fa246ab8f4a0f507f6c268b9098e0fb1d50600080a36001600160a01b03191617600455005b60405162461bcd60e51b815260206004820152601b60248201527f496e76616c69642050696f6e65427269646765206164647265737300000000006044820152606490fd5b346101a85760203660031901126101a857600435610860612261565b610868612221565b80156109d15760055481106109955733600052600660205260406000208054828110610950578261089891611f50565b90556000602060018060a01b036004541660646040518094819363065733d160e31b83523360048401528760248401526113d860448401525af19081156103805760009161091e575b506040519182527fe97754e9280514bb5691c3dee7edef6951965134bbe0bd8139a447208aaced0260203393a36001600255602060405160018152f35b90506020813d602011610948575b8161093960209383611db7565b810103126101a85751826108e1565b3d915061092c565b60405162461bcd60e51b815260206004820152601860248201527f496e73756666696369656e742062616c616e63652050494f00000000000000006044820152606490fd5b60405162461bcd60e51b8152602060048201526014602482015273416d6f756e742062656c6f77206d696e696d756d60601b6044820152606490fd5b60405162461bcd60e51b81526020600482015260166024820152750416d6f756e742050494f206d757374206265203e20360541b6044820152606490fd5b346101a85760003660031901126101a857602060ff600154166040519015158152f35b346101a85760a03660031901126101a857600435610a4e611d8b565b3360009081527fe84508f2c7fa9c351146748b3025cb78b45df37d868e48c6a75102fecdeee645602052604090205460443592916084359160ff1615610d5c57610a96612221565b60048054604051635617249b60e11b8152918201859052602090829060249082906001600160a01b03165afa90811561038057600091610d2d575b5015610ce8576000838152600760205260409020546001600160a01b0316610cab578115610c5b5760018060a01b0316928360005260066020526040600020916040519260c0840184811067ffffffffffffffff821117610c455760405282845260208401606435815260408501936000855260608601956000875260808101906000825260a0810195865288600052600760205260406000208a6bffffffffffffffffffffffff60a01b82541617905560038501958654968a600052600487016020528760406000205568010000000000000000881015610c455787610bbd9160018201815561204a565b939093610c2f577f3a5e0271cd79026f0993aa13e6dd17d1f34284aa2340c1d2c33653b9a4433ee999602099610c2497600595518755516001870155516002860155600385019051151560ff801983541691161790555160048401555191015582546120b4565b9055604051908152a3005b634e487b7160e01b600052600060045260246000fd5b634e487b7160e01b600052604160045260246000fd5b60405162461bcd60e51b815260206004820152602260248201527f4c6f636b206d6f6e746873206d7573742062652067726561746572207468616e604482015261020360f41b6064820152608490fd5b60405162461bcd60e51b815260206004820152601560248201527414995c5d595cdd125908185b1c9958591e481cd95d605a1b6044820152606490fd5b60405162461bcd60e51b815260206004820152601960248201527f5472616e73616374696f6e206e6f7420636f6d706c65746564000000000000006044820152606490fd5b610d4f915060203d602011610d55575b610d478183611db7565b8101906120c1565b85610ad1565b503d610d3d565b60405162461bcd60e51b815260206004820152600b60248201526a2737ba1036b0b730b3b2b960a91b6044820152606490fd5b346101a85760203660031901126101a857600435610dab612261565b610db3612221565b600081815260076020526040902054610dd6906001600160a01b03161515611f70565b806000526007602052610df760018060a01b03604060002054163314611fbc565b33600052600660205260ff6003610e4a60406000208460005260048101602052826040600020549101610e2c81548310612008565b610e456001610e3b848461204a565b5001541515612008565b61204a565b50015416610f445733600052600660205260406000209080600052600482016020526001604060002054926003610eee8183019584610e89828961204a565b50015496610e456040516323b872dd60e01b602082015233602482015230604482015289606482015260648152610ec1608482611db7565b878060a01b037f000000000000000000000000000000000000000000000000000000000000000016612292565b50018260ff1982541617905501610f068382546120b4565b90556040519182527f30fc86fb0bd3162e3aaba39b31fea8f708d17d861dc141db29fd9d47beb8ce3a60203393a36001600255602060405160018152f35b60405162461bcd60e51b8152602060048201526016602482015275105b1c9958591e4819195c1bdcda5d1959081554d11560521b6044820152606490fd5b346101a85760203660031901126101a857600435600081815260076020526040902054610fb9906001600160a01b03161515611f70565b80600052600760205260018060a01b036040600020541660005260066020526040600020906000526004810160205260036040600020549101805482101561104d5760c0916110079161204a565b50805490600181015490600281015460ff6003830154169060056004840154930154936040519586526020860152604085015215156060840152608083015260a0820152f35b60405162461bcd60e51b815260206004820152601060248201526f24b73b30b634b2103837b9b4ba34b7b760811b6044820152606490fd5b346101a85760003660031901126101a8576040517f00000000000000000000000000000000000000000000000000000000000000006001600160a01b03168152602090f35b346101a85760003660031901126101a8573360009081526000805160206122ee83398151915260205260409020546111049060ff1661207c565b60015460ff8116156111435760ff19166001557f5db9ee0a495bf2e6ff9c91a7834c1ba4fdd244a5e8aa4e537bd38aeae4b073aa6020604051338152a1005b638dfc202b60e01b60005260046000fd5b346101a85760403660031901126101a857602435600435611173612221565b600081815260076020526040902054611196906001600160a01b03161515611f70565b6000818152600760205260409020546111b9906001600160a01b03163314611fbc565b3360005260066020526040600020816000526004810160205260036040600020549101906111e982548210612008565b6111f86001610e3b838561204a565b6002611204828461204a565b50015461194d5761121960039160ff9361204a565b500154161561191057336000526006602052604060002090806000526004820160205260406000205492605a81116118d757600383019261125a858561204a565b50546001611268878761204a565b5001549282549382851061189d57600184018054918083106118645783606403966064881161184e576112c38260646112a18b8a611f5d565b04956112bc8960646112b560009e86611f5d565b0495611f50565b8a55611f50565b83556003544261012c810195916001600160a01b031690861061183a57606092918a61010492604051988995869462e8e33760e81b865260018060a01b037f000000000000000000000000000000000000000000000000000000000000000016600487015260018060a01b037f00000000000000000000000000000000000000000000000000000000000000001660248701528d6044870152896064870152608486015260a48501523060c485015260e48401525af195861561182f579088959493929188958c8c8b968c9b6117d4575b50918a60026113a78b948a98979661204a565b500155600283016113b98c82546120b4565b90558181116117bd575b50505081811161179f575b505050604051928352602083015283604083015260608201527fef15d1205ede66926e7d68d76794bbca9b64dff11b1596bb376ed957125311ec60803392a360405163095ea7b360e01b81527f00000000000000000000000000000000000000000000000000000000000000006001600160a01b038181166004840152602483018490527f0000000000000000000000000000000000000000000000000000000000000000169690959091602081604481888c5af1801561179457611777575b50600561149b838361204a565b5001548062278d00029062278d00820403611763576114bd90979697426120b4565b96604096888851926114cf8a85611db7565b601084526f181899199a1a9b1b9c1cb0b131b232b360811b602085015286888b516114fa8d82611db7565b600681528c6020820197601f198201368a37835b6003811061167f5750509560e4916115bf886115786002603560209c51809e61155b8f8301987403d9136111d10112824a7902628102637b1b5b2b91605d1b8a525180928585019061223e565b810161227d60f01b8382015203018d601d1982019052018c611db7565b51998a9889978895630727935760e01b87523360048801526024870152600160448701526064860152608485015260c060a48501525180928160c48601528585019061223e565b601f01601f191681010301926001600160a01b03165af1948515611674578095611637575b505091836004611618602099947f1c2fac9a217b58d9184feaeea4f883f176e185406b96166fbcad47dc048611119661204a565b5001558551938452602084015260408301523391606090a35160018152f35b90919294506020823d60201161166c575b8161165560209383611db7565b8101031261166957505192908060046115e4565b80fd5b3d9150611648565b8751903d90823e3d90fd5b935093505092949350806002036002811161174f576001600160fd1b038116810361174f57339060031b1c60ff60f81b6116bf600f8360041c1685612281565b5116908260011b918383046002148415171561173b578c1a6116e18387612281565b536001600160f81b0319906116f990600f1685612281565b5116600182018092116117275790611717600193928d1a9186612281565b53018c9394928c8a938c9361150e565b634e487b7160e01b8c52601160045260248cfd5b634e487b7160e01b8d52601160045260248dfd5b634e487b7160e01b8b52601160045260248bfd5b634e487b7160e01b85526011600452602485fd5b61178f9060203d602011610d5557610d478183611db7565b61148e565b6040513d87823e3d90fd5b6117b3916117ac91611f50565b82546120b4565b90558981816113ce565b6117ca916117ac91611f50565b90558c86816113c3565b9599505050955092509295506060813d606011611827575b816117f960609383611db7565b810103126118235780516020820151604090920151968996919590949293919291908c8c86611394565b8680fd5b3d91506117ec565b6040513d89823e3d90fd5b634e487b7160e01b8a52601160045260248afd5b634e487b7160e01b600052601160045260246000fd5b60405162461bcd60e51b8152602060048201526011602482015270125b9cdd59999a58da595b9d081554d115607a1b6044820152606490fd5b60405162461bcd60e51b8152602060048201526012602482015271496e73756666696369656e742050494f4e4560701b6044820152606490fd5b60405162461bcd60e51b81526020600482015260116024820152700a6d8d2e0e0c2ceca40e8dede40d0d2ced607b1b6044820152606490fd5b60405162461bcd60e51b81526020600482015260156024820152741554d115081b9bdd081c1c9bdd9a591959081e595d605a1b6044820152606490fd5b60405162461bcd60e51b815260206004820152602160248201527f4164646974696f6e616c206c69717569646974792072657175657374206d61646044820152606560f81b6064820152608490fd5b346101a85760403660031901126101a8576119b5611d8b565b336001600160a01b038216036119d15761028a9060043561219f565b63334bd91960e11b60005260046000fd5b346101a85760403660031901126101a85761028a600435611a01611d8b565b90611a1d61028082600052600060205260016040600020015490565b612114565b346101a85760203660031901126101a8576020611a4f600435600052600060205260016040600020015490565b604051908152f35b346101a85760403660031901126101a8576004356000602435611a78611ded565b600354604051632b58577b60e21b81526004810187905260248101839052604481018490529195919491926001600160a01b0390911690602086606481855afa958615611c8a57908792918497611c4d575b50858711611bb15750505050611ae290928092611f50565b906000905b6040516318160ddd60e01b81526020816004817f00000000000000000000000000000000000000000000000000000000000000006001600160a01b03165afa801561038057600090611b7d575b611b3f915085611f5d565b948015611b675760a09504906040519485526020850152604084015260608301526080820152f35b634e487b7160e01b600052601260045260246000fd5b506020813d602011611ba9575b81611b9760209383611db7565b810103126101a857611b3f9051611b34565b3d9150611b8a565b604051632b58577b60e21b815260048101879052602481019190915260448101929092529394509192602090839060649082905afa908115611c41578091611c0a575b50611c029150809392611f50565b600091611ae7565b90506020823d602011611c39575b81611c2560209383611db7565b810103126116695750611c02905185611bf4565b3d9150611c18565b604051903d90823e3d90fd5b91925095506020813d602011611c82575b81611c6b60209383611db7565b81010312611c7e57908691519588611aca565b8280fd5b3d9150611c5e565b6040513d85823e3d90fd5b346101a85760203660031901126101a8576103306020611cb3611ded565b600354604051632b58577b60e21b81526004803590820152602481019290925260448201929092529283916001600160a01b031690829081906064820190565b346101a85760003660031901126101a8576020600554604051908152f35b346101a85760003660031901126101a8576040611d2c611ded565b82519182526020820152f35b346101a85760203660031901126101a8576004359063ffffffff60e01b82168092036101a857602091637965db0b60e01b8114908115611d7a575b5015158152f35b6301ffc9a760e01b14905083611d73565b602435906001600160a01b03821682036101a857565b600435906001600160a01b03821682036101a857565b90601f8019910116810190811067ffffffffffffffff821117610c4557604052565b51906001600160701b03821682036101a857565b604051630240bc6b60e21b81527f00000000000000000000000000000000000000000000000000000000000000006001600160a01b031690606081600481855afa908115610380576000908192611ef6575b5060206001600160701b03806004931693169360405192838092630dfe168160e01b82525afa90811561038057600091611eb0575b506001600160a01b039081167f000000000000000000000000000000000000000000000000000000000000000090911603611eac5791565b9091565b6020813d602011611eee575b81611ec960209383611db7565b81010312611eea5751906001600160a01b0382168203611669575038611e74565b5080fd5b3d9150611ebc565b91506060823d606011611f48575b81611f1160609383611db7565b8101031261166957611f2282611dd9565b906040611f3160208501611dd9565b93015163ffffffff81160361166957506020611e3f565b3d9150611f04565b9190820391821161184e57565b8181029291811591840414171561184e57565b15611f7757565b60405162461bcd60e51b815260206004820152601860248201527f52657175657374496420646f6573206e6f7420657869737400000000000000006044820152606490fd5b15611fc357565b60405162461bcd60e51b815260206004820152601d60248201527f4e6f7420746865206f776e6572206f66207468697320726571756573740000006044820152606490fd5b1561200f57565b60405162461bcd60e51b815260206004820152601360248201527224b73b30b634b2103a3930b739b0b1ba34b7b760691b6044820152606490fd5b8054821015612066576000526006602060002091020190600090565b634e487b7160e01b600052603260045260246000fd5b1561208357565b60405162461bcd60e51b81526020600482015260096024820152682737ba1037bbb732b960b91b6044820152606490fd5b9190820180921161184e57565b908160209103126101a8575180151581036101a85790565b60008181526020818152604080832033845290915290205460ff16156120fc5750565b63e2517d3f60e01b6000523360045260245260446000fd5b6000818152602081815260408083206001600160a01b038616845290915290205460ff16612198576000818152602081815260408083206001600160a01b0395909516808452949091528120805460ff19166001179055339291907f2f8788117e7eff1d82e926ec794901d17c78024a50270940304540a733656f0d9080a4600190565b5050600090565b6000818152602081815260408083206001600160a01b038616845290915290205460ff1615612198576000818152602081815260408083206001600160a01b0395909516808452949091528120805460ff19169055339291907ff6391f5c32d9c69d2a47ea670b442974b53935d1edc7fd64eb21e047a839171b9080a4600190565b60ff6001541661222d57565b63d93c066560e01b60005260046000fd5b60005b8381106122515750506000910152565b8181015183820152602001612241565b60028054146122705760028055565b633ee5aeb560e01b60005260046000fd5b908151811015612066570160200190565b906000602091828151910182855af115610380576000513d6122e457506001600160a01b0381163b155b6122c35750565b635274afe760e01b60009081526001600160a01b0391909116600452602490fd5b600114156122bc56fead3228b676f7d3cd4284a5443f17f1962b36e491b30a40b2405849e597ba5fb5a26469706673582212206423dca5c55b026cc220b782eeed188c439050d034c4a6c6a1eb23292a5fc7bd64736f6c634300081c00332f8788117e7eff1d82e926ec794901d17c78024a50270940304540a733656f0de84508f2c7fa9c351146748b3025cb78b45df37d868e48c6a75102fecdeee645ad3228b676f7d3cd4284a5443f17f1962b36e491b30a40b2405849e597ba5fb5",
          "opcodes": "PUSH2 0x100 DUP1 PUSH1 0x40 MSTORE CALLVALUE PUSH2 0x354 JUMPI PUSH1 0xA0 DUP2 PUSH2 0x2925 DUP1 CODESIZE SUB DUP1 SWAP2 PUSH2 0x20 DUP3 DUP6 PUSH2 0x408 JUMP JUMPDEST DUP4 CODECOPY DUP2 ADD SUB SLT PUSH2 0x354 JUMPI PUSH2 0x33 DUP2 PUSH2 0x441 JUMP JUMPDEST SWAP1 PUSH2 0x40 PUSH1 0x20 DUP3 ADD PUSH2 0x441 JUMP JUMPDEST SWAP2 PUSH2 0x4D PUSH1 0x40 DUP4 ADD PUSH2 0x441 JUMP JUMPDEST SWAP3 PUSH2 0x66 PUSH1 0x80 PUSH2 0x5F PUSH1 0x60 DUP7 ADD PUSH2 0x441 JUMP JUMPDEST SWAP5 ADD PUSH2 0x441 JUMP JUMPDEST PUSH1 0x1 PUSH1 0x2 SSTORE SWAP2 PUSH1 0x1 PUSH1 0x1 PUSH1 0xA0 SHL SUB DUP2 AND ISZERO ISZERO DUP1 PUSH2 0x3F6 JUMPI JUMPDEST DUP1 PUSH2 0x3E4 JUMPI JUMPDEST DUP1 PUSH2 0x3D2 JUMPI JUMPDEST ISZERO PUSH2 0x39B JUMPI PUSH1 0x80 MSTORE PUSH1 0xA0 MSTORE PUSH1 0xE0 MSTORE PUSH1 0x3 DUP1 SLOAD PUSH1 0x1 PUSH1 0x1 PUSH1 0xA0 SHL SUB NOT AND PUSH1 0x1 PUSH1 0x1 PUSH1 0xA0 SHL SUB DUP4 AND SWAP1 DUP2 OR SWAP1 SWAP2 SSTORE PUSH1 0x40 MLOAD PUSH4 0xC45A0155 PUSH1 0xE0 SHL DUP2 MSTORE SWAP1 PUSH1 0x20 SWAP1 DUP3 SWAP1 PUSH1 0x4 SWAP1 DUP3 SWAP1 GAS STATICCALL SWAP1 DUP2 ISZERO PUSH2 0x2B6 JUMPI PUSH1 0x0 SWAP2 PUSH2 0x361 JUMPI JUMPDEST POP PUSH1 0x80 MLOAD PUSH1 0xA0 MLOAD PUSH1 0x40 MLOAD PUSH4 0xE6A43905 PUSH1 0xE0 SHL DUP2 MSTORE PUSH1 0x1 PUSH1 0x1 PUSH1 0xA0 SHL SUB SWAP3 DUP4 AND PUSH1 0x4 DUP3 ADD MSTORE SWAP1 DUP3 AND PUSH1 0x24 DUP3 ADD MSTORE SWAP2 PUSH1 0x20 SWAP2 DUP4 SWAP2 PUSH1 0x44 SWAP2 DUP4 SWAP2 AND GAS STATICCALL SWAP1 DUP2 ISZERO PUSH2 0x2B6 JUMPI PUSH1 0x0 SWAP2 PUSH2 0x322 JUMPI JUMPDEST POP PUSH1 0xC0 DUP2 SWAP1 MSTORE PUSH1 0x1 PUSH1 0x1 PUSH1 0xA0 SHL SUB AND ISZERO PUSH2 0x2DD JUMPI PUSH1 0x80 MLOAD PUSH1 0x40 MLOAD PUSH4 0x95EA7B3 PUSH1 0xE0 SHL DUP2 MSTORE PUSH1 0x1 PUSH1 0x1 PUSH1 0xA0 SHL SUB DUP4 DUP2 AND PUSH1 0x4 DUP4 ADD MSTORE PUSH1 0x0 NOT PUSH1 0x24 DUP4 ADD MSTORE SWAP1 SWAP2 PUSH1 0x20 SWAP2 DUP4 SWAP2 PUSH1 0x44 SWAP2 DUP4 SWAP2 PUSH1 0x0 SWAP2 AND GAS CALL DUP1 ISZERO PUSH2 0x2B6 JUMPI PUSH1 0x0 SWAP3 PUSH1 0x20 SWAP3 PUSH2 0x1C7 SWAP3 PUSH2 0x2C2 JUMPI JUMPDEST POP PUSH1 0xA0 MLOAD PUSH1 0x40 MLOAD PUSH4 0x95EA7B3 PUSH1 0xE0 SHL DUP2 MSTORE PUSH1 0x1 PUSH1 0x1 PUSH1 0xA0 SHL SUB SWAP3 DUP4 AND PUSH1 0x4 DUP3 ADD MSTORE PUSH1 0x0 NOT PUSH1 0x24 DUP3 ADD MSTORE SWAP5 DUP6 SWAP4 SWAP2 SWAP1 SWAP3 AND SWAP2 DUP4 SWAP2 DUP3 SWAP1 PUSH1 0x44 DUP3 ADD SWAP1 JUMP JUMPDEST SUB SWAP3 GAS CALL DUP1 ISZERO PUSH2 0x2B6 JUMPI PUSH2 0x289 JUMPI JUMPDEST POP PUSH2 0x1E0 CALLER PUSH2 0x46D JUMP JUMPDEST POP PUSH2 0x1EA CALLER PUSH2 0x4E9 JUMP JUMPDEST POP PUSH1 0x4 DUP1 SLOAD PUSH1 0x1 PUSH1 0x1 PUSH1 0xA0 SHL SUB NOT AND PUSH1 0x1 PUSH1 0x1 PUSH1 0xA0 SHL SUB SWAP3 SWAP1 SWAP3 AND SWAP2 SWAP1 SWAP2 OR SWAP1 SSTORE PUSH8 0xDE0B6B3A7640000 PUSH1 0x5 SSTORE PUSH1 0x40 MLOAD PUSH2 0x2343 SWAP1 DUP2 PUSH2 0x582 DUP3 CODECOPY PUSH1 0x80 MLOAD DUP2 DUP2 DUP2 PUSH2 0x2A2 ADD MSTORE PUSH2 0x1303 ADD MSTORE PUSH1 0xA0 MLOAD DUP2 DUP2 DUP2 PUSH2 0x40D ADD MSTORE DUP2 DUP2 PUSH2 0x73C ADD MSTORE DUP2 DUP2 PUSH2 0xEC9 ADD MSTORE DUP2 DUP2 PUSH2 0x1331 ADD MSTORE PUSH2 0x1E82 ADD MSTORE PUSH1 0xC0 MLOAD DUP2 DUP2 DUP2 PUSH2 0x566 ADD MSTORE DUP2 DUP2 PUSH2 0x1454 ADD MSTORE DUP2 DUP2 PUSH2 0x1AFC ADD MSTORE PUSH2 0x1DFC ADD MSTORE PUSH1 0xE0 MLOAD DUP2 DUP2 DUP2 PUSH2 0x109B ADD MSTORE PUSH2 0x141C ADD MSTORE RETURN JUMPDEST PUSH2 0x2AA SWAP1 PUSH1 0x20 RETURNDATASIZE PUSH1 0x20 GT PUSH2 0x2AF JUMPI JUMPDEST PUSH2 0x2A2 DUP2 DUP4 PUSH2 0x408 JUMP JUMPDEST DUP2 ADD SWAP1 PUSH2 0x455 JUMP JUMPDEST PUSH2 0x1D6 JUMP JUMPDEST POP RETURNDATASIZE PUSH2 0x298 JUMP JUMPDEST PUSH1 0x40 MLOAD RETURNDATASIZE PUSH1 0x0 DUP3 RETURNDATACOPY RETURNDATASIZE SWAP1 REVERT JUMPDEST PUSH2 0x2D8 SWAP1 DUP5 RETURNDATASIZE DUP7 GT PUSH2 0x2AF JUMPI PUSH2 0x2A2 DUP2 DUP4 PUSH2 0x408 JUMP JUMPDEST PUSH2 0x18B JUMP JUMPDEST PUSH1 0x40 MLOAD PUSH3 0x461BCD PUSH1 0xE5 SHL DUP2 MSTORE PUSH1 0x20 PUSH1 0x4 DUP3 ADD MSTORE PUSH1 0x16 PUSH1 0x24 DUP3 ADD MSTORE PUSH32 0x4C50207061697220646F6573206E6F7420657869737400000000000000000000 PUSH1 0x44 DUP3 ADD MSTORE PUSH1 0x64 SWAP1 REVERT JUMPDEST SWAP1 POP PUSH1 0x20 DUP2 RETURNDATASIZE PUSH1 0x20 GT PUSH2 0x359 JUMPI JUMPDEST DUP2 PUSH2 0x33D PUSH1 0x20 SWAP4 DUP4 PUSH2 0x408 JUMP JUMPDEST DUP2 ADD SUB SLT PUSH2 0x354 JUMPI PUSH2 0x34E SWAP1 PUSH2 0x441 JUMP JUMPDEST CODESIZE PUSH2 0x128 JUMP JUMPDEST PUSH1 0x0 DUP1 REVERT JUMPDEST RETURNDATASIZE SWAP2 POP PUSH2 0x330 JUMP JUMPDEST SWAP1 POP PUSH1 0x20 DUP2 RETURNDATASIZE PUSH1 0x20 GT PUSH2 0x393 JUMPI JUMPDEST DUP2 PUSH2 0x37C PUSH1 0x20 SWAP4 DUP4 PUSH2 0x408 JUMP JUMPDEST DUP2 ADD SUB SLT PUSH2 0x354 JUMPI PUSH2 0x38D SWAP1 PUSH2 0x441 JUMP JUMPDEST CODESIZE PUSH2 0xDF JUMP JUMPDEST RETURNDATASIZE SWAP2 POP PUSH2 0x36F JUMP JUMPDEST PUSH1 0x40 MLOAD PUSH3 0x461BCD PUSH1 0xE5 SHL DUP2 MSTORE PUSH1 0x20 PUSH1 0x4 DUP3 ADD MSTORE PUSH1 0xF PUSH1 0x24 DUP3 ADD MSTORE PUSH15 0x496E76616C69642061646472657373 PUSH1 0x88 SHL PUSH1 0x44 DUP3 ADD MSTORE PUSH1 0x64 SWAP1 REVERT JUMPDEST POP PUSH1 0x1 PUSH1 0x1 PUSH1 0xA0 SHL SUB DUP4 AND ISZERO ISZERO PUSH2 0x8A JUMP JUMPDEST POP PUSH1 0x1 PUSH1 0x1 PUSH1 0xA0 SHL SUB DUP5 AND ISZERO ISZERO PUSH2 0x84 JUMP JUMPDEST POP PUSH1 0x1 PUSH1 0x1 PUSH1 0xA0 SHL SUB DUP3 AND ISZERO ISZERO PUSH2 0x7E JUMP JUMPDEST PUSH1 0x1F SWAP1 SWAP2 ADD PUSH1 0x1F NOT AND DUP2 ADD SWAP1 PUSH1 0x1 PUSH1 0x1 PUSH1 0x40 SHL SUB DUP3 GT SWAP1 DUP3 LT OR PUSH2 0x42B JUMPI PUSH1 0x40 MSTORE JUMP JUMPDEST PUSH4 0x4E487B71 PUSH1 0xE0 SHL PUSH1 0x0 MSTORE PUSH1 0x41 PUSH1 0x4 MSTORE PUSH1 0x24 PUSH1 0x0 REVERT JUMPDEST MLOAD SWAP1 PUSH1 0x1 PUSH1 0x1 PUSH1 0xA0 SHL SUB DUP3 AND DUP3 SUB PUSH2 0x354 JUMPI JUMP JUMPDEST SWAP1 DUP2 PUSH1 0x20 SWAP2 SUB SLT PUSH2 0x354 JUMPI MLOAD DUP1 ISZERO ISZERO DUP2 SUB PUSH2 0x354 JUMPI SWAP1 JUMP JUMPDEST PUSH1 0x1 PUSH1 0x1 PUSH1 0xA0 SHL SUB DUP2 AND PUSH1 0x0 SWAP1 DUP2 MSTORE PUSH1 0x0 DUP1 MLOAD PUSH1 0x20 PUSH2 0x2905 DUP4 CODECOPY DUP2 MLOAD SWAP2 MSTORE PUSH1 0x20 MSTORE PUSH1 0x40 SWAP1 KECCAK256 SLOAD PUSH1 0xFF AND PUSH2 0x4E3 JUMPI PUSH1 0x1 PUSH1 0x1 PUSH1 0xA0 SHL SUB AND PUSH1 0x0 DUP2 DUP2 MSTORE PUSH1 0x0 DUP1 MLOAD PUSH1 0x20 PUSH2 0x2905 DUP4 CODECOPY DUP2 MLOAD SWAP2 MSTORE PUSH1 0x20 MSTORE PUSH1 0x40 DUP2 KECCAK256 DUP1 SLOAD PUSH1 0xFF NOT AND PUSH1 0x1 OR SWAP1 SSTORE CALLER SWAP2 SWAP1 PUSH1 0x0 DUP1 MLOAD PUSH1 0x20 PUSH2 0x28C5 DUP4 CODECOPY DUP2 MLOAD SWAP2 MSTORE DUP2 DUP1 LOG4 PUSH1 0x1 SWAP1 JUMP JUMPDEST POP PUSH1 0x0 SWAP1 JUMP JUMPDEST PUSH1 0x1 PUSH1 0x1 PUSH1 0xA0 SHL SUB DUP2 AND PUSH1 0x0 SWAP1 DUP2 MSTORE PUSH1 0x0 DUP1 MLOAD PUSH1 0x20 PUSH2 0x28E5 DUP4 CODECOPY DUP2 MLOAD SWAP2 MSTORE PUSH1 0x20 MSTORE PUSH1 0x40 SWAP1 KECCAK256 SLOAD PUSH1 0xFF AND PUSH2 0x4E3 JUMPI PUSH1 0x1 PUSH1 0x1 PUSH1 0xA0 SHL SUB AND PUSH1 0x0 DUP2 DUP2 MSTORE PUSH1 0x0 DUP1 MLOAD PUSH1 0x20 PUSH2 0x28E5 DUP4 CODECOPY DUP2 MLOAD SWAP2 MSTORE PUSH1 0x20 MSTORE PUSH1 0x40 DUP2 KECCAK256 DUP1 SLOAD PUSH1 0xFF NOT AND PUSH1 0x1 OR SWAP1 SSTORE CALLER SWAP2 SWAP1 PUSH32 0x241ECF16D79D0F8DBFB92CBC07FE17840425976CF0667F022FE9877CAA831B08 SWAP1 PUSH1 0x0 DUP1 MLOAD PUSH1 0x20 PUSH2 0x28C5 DUP4 CODECOPY DUP2 MLOAD SWAP2 MSTORE SWAP1 DUP1 LOG4 PUSH1 0x1 SWAP1 JUMP INVALID PUSH1 0x80 DUP1 PUSH1 0x40 MSTORE PUSH1 0x4 CALLDATASIZE LT ISZERO PUSH2 0x13 JUMPI PUSH1 0x0 DUP1 REVERT JUMPDEST PUSH1 0x0 CALLDATALOAD PUSH1 0xE0 SHR SWAP1 DUP2 PUSH4 0x1FFC9A7 EQ PUSH2 0x1D38 JUMPI POP DUP1 PUSH4 0x902F1AC EQ PUSH2 0x1D11 JUMPI DUP1 PUSH4 0x9471528 EQ PUSH2 0x1CF3 JUMPI DUP1 PUSH4 0x11470103 EQ PUSH2 0x1C95 JUMPI DUP1 PUSH4 0x1CDF2DC3 EQ PUSH2 0x1A57 JUMPI DUP1 PUSH4 0x248A9CA3 EQ PUSH2 0x1A22 JUMPI DUP1 PUSH4 0x2F2FF15D EQ PUSH2 0x19E2 JUMPI DUP1 PUSH4 0x36568ABE EQ PUSH2 0x199C JUMPI DUP1 PUSH4 0x3B57E2BC EQ PUSH2 0x1154 JUMPI DUP1 PUSH4 0x3F4BA83A EQ PUSH2 0x10CA JUMPI DUP1 PUSH4 0x449B5392 EQ PUSH2 0x1085 JUMPI DUP1 PUSH4 0x49E6B62C EQ PUSH2 0xF82 JUMPI DUP1 PUSH4 0x4E46D259 EQ PUSH2 0xD8F JUMPI DUP1 PUSH4 0x5585A6FA EQ PUSH2 0xA32 JUMPI DUP1 PUSH4 0x5C975ABB EQ PUSH2 0xA0F JUMPI DUP1 PUSH4 0x6EBA86A2 EQ PUSH2 0x844 JUMPI DUP1 PUSH4 0x721C8C0A EQ PUSH2 0x76B JUMPI DUP1 PUSH4 0x77B330C9 EQ PUSH2 0x726 JUMPI DUP1 PUSH4 0x78BB5DBD EQ PUSH2 0x65C JUMPI DUP1 PUSH4 0x8456CB59 EQ PUSH2 0x5E2 JUMPI DUP1 PUSH4 0x91D14854 EQ PUSH2 0x595 JUMPI DUP1 PUSH4 0x93A013E0 EQ PUSH2 0x550 JUMPI DUP1 PUSH4 0xA217FDDF EQ PUSH2 0x534 JUMPI DUP1 PUSH4 0xABD3F612 EQ PUSH2 0x4F1 JUMPI DUP1 PUSH4 0xB0F9006A EQ PUSH2 0x38C JUMPI DUP1 PUSH4 0xBC339809 EQ PUSH2 0x2D1 JUMPI DUP1 PUSH4 0xD344F1B9 EQ PUSH2 0x28C JUMPI DUP1 PUSH4 0xD547741F EQ PUSH2 0x245 JUMPI DUP1 PUSH4 0xEC87621C EQ PUSH2 0x20A JUMPI DUP1 PUSH4 0xEDC73DBC EQ PUSH2 0x1E1 JUMPI DUP1 PUSH4 0xF4627A11 EQ PUSH2 0x1AD JUMPI PUSH4 0xF887EA40 EQ PUSH2 0x17F JUMPI PUSH1 0x0 DUP1 REVERT JUMPDEST CALLVALUE PUSH2 0x1A8 JUMPI PUSH1 0x0 CALLDATASIZE PUSH1 0x3 NOT ADD SLT PUSH2 0x1A8 JUMPI PUSH1 0x3 SLOAD PUSH1 0x40 MLOAD PUSH1 0x1 PUSH1 0x1 PUSH1 0xA0 SHL SUB SWAP1 SWAP2 AND DUP2 MSTORE PUSH1 0x20 SWAP1 RETURN JUMPDEST PUSH1 0x0 DUP1 REVERT JUMPDEST CALLVALUE PUSH2 0x1A8 JUMPI PUSH1 0x20 CALLDATASIZE PUSH1 0x3 NOT ADD SLT PUSH2 0x1A8 JUMPI PUSH1 0x4 CALLDATALOAD PUSH1 0x0 MSTORE PUSH1 0x7 PUSH1 0x20 MSTORE PUSH1 0x20 PUSH1 0x1 DUP1 PUSH1 0xA0 SHL SUB PUSH1 0x40 PUSH1 0x0 KECCAK256 SLOAD AND PUSH1 0x40 MLOAD SWAP1 DUP2 MSTORE RETURN JUMPDEST CALLVALUE PUSH2 0x1A8 JUMPI PUSH1 0x0 CALLDATASIZE PUSH1 0x3 NOT ADD SLT PUSH2 0x1A8 JUMPI PUSH1 0x4 SLOAD PUSH1 0x40 MLOAD PUSH1 0x1 PUSH1 0x1 PUSH1 0xA0 SHL SUB SWAP1 SWAP2 AND DUP2 MSTORE PUSH1 0x20 SWAP1 RETURN JUMPDEST CALLVALUE PUSH2 0x1A8 JUMPI PUSH1 0x0 CALLDATASIZE PUSH1 0x3 NOT ADD SLT PUSH2 0x1A8 JUMPI PUSH1 0x20 PUSH1 0x40 MLOAD PUSH32 0x241ECF16D79D0F8DBFB92CBC07FE17840425976CF0667F022FE9877CAA831B08 DUP2 MSTORE RETURN JUMPDEST CALLVALUE PUSH2 0x1A8 JUMPI PUSH1 0x40 CALLDATASIZE PUSH1 0x3 NOT ADD SLT PUSH2 0x1A8 JUMPI PUSH2 0x28A PUSH1 0x4 CALLDATALOAD PUSH2 0x264 PUSH2 0x1D8B JUMP JUMPDEST SWAP1 PUSH2 0x285 PUSH2 0x280 DUP3 PUSH1 0x0 MSTORE PUSH1 0x0 PUSH1 0x20 MSTORE PUSH1 0x1 PUSH1 0x40 PUSH1 0x0 KECCAK256 ADD SLOAD SWAP1 JUMP JUMPDEST PUSH2 0x20D9 JUMP JUMPDEST PUSH2 0x219F JUMP JUMPDEST STOP JUMPDEST CALLVALUE PUSH2 0x1A8 JUMPI PUSH1 0x0 CALLDATASIZE PUSH1 0x3 NOT ADD SLT PUSH2 0x1A8 JUMPI PUSH1 0x40 MLOAD PUSH32 0x0 PUSH1 0x1 PUSH1 0x1 PUSH1 0xA0 SHL SUB AND DUP2 MSTORE PUSH1 0x20 SWAP1 RETURN JUMPDEST CALLVALUE PUSH2 0x1A8 JUMPI PUSH1 0x20 CALLDATASIZE PUSH1 0x3 NOT ADD SLT PUSH2 0x1A8 JUMPI PUSH2 0x330 PUSH1 0x20 PUSH2 0x2EF PUSH2 0x1DED JUMP JUMPDEST PUSH1 0x3 SLOAD PUSH1 0x40 MLOAD PUSH4 0x2B58577B PUSH1 0xE2 SHL DUP2 MSTORE PUSH1 0x4 DUP1 CALLDATALOAD SWAP1 DUP3 ADD MSTORE PUSH1 0x24 DUP2 ADD SWAP4 SWAP1 SWAP4 MSTORE PUSH1 0x44 DUP4 ADD SWAP2 SWAP1 SWAP2 MSTORE SWAP1 SWAP3 DUP4 SWAP2 PUSH1 0x1 PUSH1 0x1 PUSH1 0xA0 SHL SUB AND SWAP1 DUP3 SWAP1 DUP2 SWAP1 PUSH1 0x64 DUP3 ADD SWAP1 JUMP JUMPDEST SUB SWAP2 GAS STATICCALL DUP1 ISZERO PUSH2 0x380 JUMPI PUSH1 0x0 SWAP1 PUSH2 0x34D JUMPI JUMPDEST PUSH1 0x20 SWAP1 PUSH1 0x40 MLOAD SWAP1 DUP2 MSTORE RETURN JUMPDEST POP PUSH1 0x20 DUP2 RETURNDATASIZE PUSH1 0x20 GT PUSH2 0x378 JUMPI JUMPDEST DUP2 PUSH2 0x367 PUSH1 0x20 SWAP4 DUP4 PUSH2 0x1DB7 JUMP JUMPDEST DUP2 ADD SUB SLT PUSH2 0x1A8 JUMPI PUSH1 0x20 SWAP1 MLOAD PUSH2 0x342 JUMP JUMPDEST RETURNDATASIZE SWAP2 POP PUSH2 0x35A JUMP JUMPDEST PUSH1 0x40 MLOAD RETURNDATASIZE PUSH1 0x0 DUP3 RETURNDATACOPY RETURNDATASIZE SWAP1 REVERT JUMPDEST CALLVALUE PUSH2 0x1A8 JUMPI PUSH1 0x20 CALLDATASIZE PUSH1 0x3 NOT ADD SLT PUSH2 0x1A8 JUMPI PUSH1 0x4 CALLDATALOAD PUSH2 0x3A8 PUSH2 0x2261 JUMP JUMPDEST PUSH2 0x3B0 PUSH2 0x2221 JUMP JUMPDEST DUP1 ISZERO PUSH2 0x4BB JUMPI CALLER PUSH1 0x0 MSTORE PUSH1 0x6 PUSH1 0x20 MSTORE PUSH1 0x1 PUSH1 0x40 PUSH1 0x0 KECCAK256 ADD DUP1 SLOAD DUP3 DUP2 LT PUSH2 0x476 JUMPI DUP3 PUSH2 0x3DA SWAP2 PUSH2 0x1F50 JUMP JUMPDEST SWAP1 SSTORE PUSH1 0x40 MLOAD PUSH4 0xA9059CBB PUSH1 0xE0 SHL PUSH1 0x20 DUP3 ADD MSTORE CALLER PUSH1 0x24 DUP3 ADD MSTORE PUSH1 0x44 DUP1 DUP3 ADD DUP4 SWAP1 MSTORE DUP2 MSTORE PUSH2 0x43A SWAP1 PUSH2 0x40B PUSH1 0x64 DUP3 PUSH2 0x1DB7 JUMP JUMPDEST PUSH32 0x0 PUSH1 0x1 PUSH1 0x1 PUSH1 0xA0 SHL SUB AND PUSH2 0x2292 JUMP JUMPDEST PUSH1 0x40 MLOAD SWAP1 DUP2 MSTORE PUSH32 0x4A871023DDAB2A4D3BFCFEEECA493E98D3EF746B67DB88347AD53D14F6A532BD PUSH1 0x20 CALLER SWAP3 LOG2 PUSH1 0x1 PUSH1 0x2 SSTORE PUSH1 0x20 PUSH1 0x40 MLOAD PUSH1 0x1 DUP2 MSTORE RETURN JUMPDEST PUSH1 0x40 MLOAD PUSH3 0x461BCD PUSH1 0xE5 SHL DUP2 MSTORE PUSH1 0x20 PUSH1 0x4 DUP3 ADD MSTORE PUSH1 0x19 PUSH1 0x24 DUP3 ADD MSTORE PUSH32 0x496E73756666696369656E742062616C616E6365205553445400000000000000 PUSH1 0x44 DUP3 ADD MSTORE PUSH1 0x64 SWAP1 REVERT JUMPDEST PUSH1 0x40 MLOAD PUSH3 0x461BCD PUSH1 0xE5 SHL DUP2 MSTORE PUSH1 0x20 PUSH1 0x4 DUP3 ADD MSTORE PUSH1 0xE PUSH1 0x24 DUP3 ADD MSTORE PUSH14 0x1A5B9D985B1A5908185B5BDD5B9D PUSH1 0x92 SHL PUSH1 0x44 DUP3 ADD MSTORE PUSH1 0x64 SWAP1 REVERT JUMPDEST CALLVALUE PUSH2 0x1A8 JUMPI PUSH1 0x20 CALLDATASIZE PUSH1 0x3 NOT ADD SLT PUSH2 0x1A8 JUMPI PUSH1 0x1 PUSH1 0x1 PUSH1 0xA0 SHL SUB PUSH2 0x512 PUSH2 0x1DA1 JUMP JUMPDEST AND PUSH1 0x0 MSTORE PUSH1 0x6 PUSH1 0x20 MSTORE PUSH1 0x40 DUP1 PUSH1 0x0 KECCAK256 PUSH1 0x1 DUP2 SLOAD SWAP2 ADD SLOAD DUP3 MLOAD SWAP2 DUP3 MSTORE PUSH1 0x20 DUP3 ADD MSTORE RETURN JUMPDEST CALLVALUE PUSH2 0x1A8 JUMPI PUSH1 0x0 CALLDATASIZE PUSH1 0x3 NOT ADD SLT PUSH2 0x1A8 JUMPI PUSH1 0x20 PUSH1 0x40 MLOAD PUSH1 0x0 DUP2 MSTORE RETURN JUMPDEST CALLVALUE PUSH2 0x1A8 JUMPI PUSH1 0x0 CALLDATASIZE PUSH1 0x3 NOT ADD SLT PUSH2 0x1A8 JUMPI PUSH1 0x40 MLOAD PUSH32 0x0 PUSH1 0x1 PUSH1 0x1 PUSH1 0xA0 SHL SUB AND DUP2 MSTORE PUSH1 0x20 SWAP1 RETURN JUMPDEST CALLVALUE PUSH2 0x1A8 JUMPI PUSH1 0x40 CALLDATASIZE PUSH1 0x3 NOT ADD SLT PUSH2 0x1A8 JUMPI PUSH2 0x5AE PUSH2 0x1D8B JUMP JUMPDEST PUSH1 0x4 CALLDATALOAD PUSH1 0x0 MSTORE PUSH1 0x0 PUSH1 0x20 MSTORE PUSH1 0x40 PUSH1 0x0 KECCAK256 SWAP1 PUSH1 0x1 DUP1 PUSH1 0xA0 SHL SUB AND PUSH1 0x0 MSTORE PUSH1 0x20 MSTORE PUSH1 0x20 PUSH1 0xFF PUSH1 0x40 PUSH1 0x0 KECCAK256 SLOAD AND PUSH1 0x40 MLOAD SWAP1 ISZERO ISZERO DUP2 MSTORE RETURN JUMPDEST CALLVALUE PUSH2 0x1A8 JUMPI PUSH1 0x0 CALLDATASIZE PUSH1 0x3 NOT ADD SLT PUSH2 0x1A8 JUMPI CALLER PUSH1 0x0 SWAP1 DUP2 MSTORE PUSH1 0x0 DUP1 MLOAD PUSH1 0x20 PUSH2 0x22EE DUP4 CODECOPY DUP2 MLOAD SWAP2 MSTORE PUSH1 0x20 MSTORE PUSH1 0x40 SWAP1 KECCAK256 SLOAD PUSH2 0x61C SWAP1 PUSH1 0xFF AND PUSH2 0x207C JUMP JUMPDEST PUSH2 0x624 PUSH2 0x2221 JUMP JUMPDEST PUSH1 0x1 PUSH1 0xFF NOT DUP2 SLOAD AND OR PUSH1 0x1 SSTORE PUSH32 0x62E78CEA01BEE320CD4E420270B5EA74000D11B0C9F74754EBDBFC544B05A258 PUSH1 0x20 PUSH1 0x40 MLOAD CALLER DUP2 MSTORE LOG1 STOP JUMPDEST CALLVALUE PUSH2 0x1A8 JUMPI PUSH1 0x20 CALLDATASIZE PUSH1 0x3 NOT ADD SLT PUSH2 0x1A8 JUMPI CALLER PUSH1 0x0 SWAP1 DUP2 MSTORE PUSH1 0x0 DUP1 MLOAD PUSH1 0x20 PUSH2 0x22EE DUP4 CODECOPY DUP2 MLOAD SWAP2 MSTORE PUSH1 0x20 MSTORE PUSH1 0x40 SWAP1 KECCAK256 SLOAD PUSH1 0x4 CALLDATALOAD SWAP1 PUSH2 0x69A SWAP1 PUSH1 0xFF AND PUSH2 0x207C JUMP JUMPDEST DUP1 ISZERO PUSH2 0x6D7 JUMPI PUSH32 0xB29DB3ED4BE00BB9125746733A49FA8E4BC0D6C1CBA2D0E3C0B3D72801C27527 PUSH1 0x40 PUSH1 0x5 SLOAD DUP2 MLOAD SWAP1 DUP2 MSTORE DUP4 PUSH1 0x20 DUP3 ADD MSTORE LOG1 PUSH1 0x5 SSTORE STOP JUMPDEST PUSH1 0x40 MLOAD PUSH3 0x461BCD PUSH1 0xE5 SHL DUP2 MSTORE PUSH1 0x20 PUSH1 0x4 DUP3 ADD MSTORE PUSH1 0x21 PUSH1 0x24 DUP3 ADD MSTORE PUSH32 0x4D696E20616D6F756E74206D7573742062652067726561746572207468616E20 PUSH1 0x44 DUP3 ADD MSTORE PUSH1 0x3 PUSH1 0xFC SHL PUSH1 0x64 DUP3 ADD MSTORE PUSH1 0x84 SWAP1 REVERT JUMPDEST CALLVALUE PUSH2 0x1A8 JUMPI PUSH1 0x0 CALLDATASIZE PUSH1 0x3 NOT ADD SLT PUSH2 0x1A8 JUMPI PUSH1 0x40 MLOAD PUSH32 0x0 PUSH1 0x1 PUSH1 0x1 PUSH1 0xA0 SHL SUB AND DUP2 MSTORE PUSH1 0x20 SWAP1 RETURN JUMPDEST CALLVALUE PUSH2 0x1A8 JUMPI PUSH1 0x20 CALLDATASIZE PUSH1 0x3 NOT ADD SLT PUSH2 0x1A8 JUMPI PUSH2 0x784 PUSH2 0x1DA1 JUMP JUMPDEST CALLER PUSH1 0x0 SWAP1 DUP2 MSTORE PUSH1 0x0 DUP1 MLOAD PUSH1 0x20 PUSH2 0x22EE DUP4 CODECOPY DUP2 MLOAD SWAP2 MSTORE PUSH1 0x20 MSTORE PUSH1 0x40 SWAP1 KECCAK256 SLOAD PUSH2 0x7AD SWAP1 PUSH1 0xFF AND PUSH2 0x207C JUMP JUMPDEST PUSH1 0x1 PUSH1 0x1 PUSH1 0xA0 SHL SUB AND DUP1 ISZERO PUSH2 0x7FF JUMPI PUSH1 0x4 SLOAD DUP2 PUSH1 0x1 PUSH1 0x1 PUSH1 0xA0 SHL SUB DUP3 AND PUSH32 0xEC54B369953ED98493762CC0B6B40FA246AB8F4A0F507F6C268B9098E0FB1D50 PUSH1 0x0 DUP1 LOG3 PUSH1 0x1 PUSH1 0x1 PUSH1 0xA0 SHL SUB NOT AND OR PUSH1 0x4 SSTORE STOP JUMPDEST PUSH1 0x40 MLOAD PUSH3 0x461BCD PUSH1 0xE5 SHL DUP2 MSTORE PUSH1 0x20 PUSH1 0x4 DUP3 ADD MSTORE PUSH1 0x1B PUSH1 0x24 DUP3 ADD MSTORE PUSH32 0x496E76616C69642050696F6E6542726964676520616464726573730000000000 PUSH1 0x44 DUP3 ADD MSTORE PUSH1 0x64 SWAP1 REVERT JUMPDEST CALLVALUE PUSH2 0x1A8 JUMPI PUSH1 0x20 CALLDATASIZE PUSH1 0x3 NOT ADD SLT PUSH2 0x1A8 JUMPI PUSH1 0x4 CALLDATALOAD PUSH2 0x860 PUSH2 0x2261 JUMP JUMPDEST PUSH2 0x868 PUSH2 0x2221 JUMP JUMPDEST DUP1 ISZERO PUSH2 0x9D1 JUMPI PUSH1 0x5 SLOAD DUP2 LT PUSH2 0x995 JUMPI CALLER PUSH1 0x0 MSTORE PUSH1 0x6 PUSH1 0x20 MSTORE PUSH1 0x40 PUSH1 0x0 KECCAK256 DUP1 SLOAD DUP3 DUP2 LT PUSH2 0x950 JUMPI DUP3 PUSH2 0x898 SWAP2 PUSH2 0x1F50 JUMP JUMPDEST SWAP1 SSTORE PUSH1 0x0 PUSH1 0x20 PUSH1 0x1 DUP1 PUSH1 0xA0 SHL SUB PUSH1 0x4 SLOAD AND PUSH1 0x64 PUSH1 0x40 MLOAD DUP1 SWAP5 DUP2 SWAP4 PUSH4 0x65733D1 PUSH1 0xE3 SHL DUP4 MSTORE CALLER PUSH1 0x4 DUP5 ADD MSTORE DUP8 PUSH1 0x24 DUP5 ADD MSTORE PUSH2 0x13D8 PUSH1 0x44 DUP5 ADD MSTORE GAS CALL SWAP1 DUP2 ISZERO PUSH2 0x380 JUMPI PUSH1 0x0 SWAP2 PUSH2 0x91E JUMPI JUMPDEST POP PUSH1 0x40 MLOAD SWAP2 DUP3 MSTORE PUSH32 0xE97754E9280514BB5691C3DEE7EDEF6951965134BBE0BD8139A447208AACED02 PUSH1 0x20 CALLER SWAP4 LOG3 PUSH1 0x1 PUSH1 0x2 SSTORE PUSH1 0x20 PUSH1 0x40 MLOAD PUSH1 0x1 DUP2 MSTORE RETURN JUMPDEST SWAP1 POP PUSH1 0x20 DUP2 RETURNDATASIZE PUSH1 0x20 GT PUSH2 0x948 JUMPI JUMPDEST DUP2 PUSH2 0x939 PUSH1 0x20 SWAP4 DUP4 PUSH2 0x1DB7 JUMP JUMPDEST DUP2 ADD SUB SLT PUSH2 0x1A8 JUMPI MLOAD DUP3 PUSH2 0x8E1 JUMP JUMPDEST RETURNDATASIZE SWAP2 POP PUSH2 0x92C JUMP JUMPDEST PUSH1 0x40 MLOAD PUSH3 0x461BCD PUSH1 0xE5 SHL DUP2 MSTORE PUSH1 0x20 PUSH1 0x4 DUP3 ADD MSTORE PUSH1 0x18 PUSH1 0x24 DUP3 ADD MSTORE PUSH32 0x496E73756666696369656E742062616C616E63652050494F0000000000000000 PUSH1 0x44 DUP3 ADD MSTORE PUSH1 0x64 SWAP1 REVERT JUMPDEST PUSH1 0x40 MLOAD PUSH3 0x461BCD PUSH1 0xE5 SHL DUP2 MSTORE PUSH1 0x20 PUSH1 0x4 DUP3 ADD MSTORE PUSH1 0x14 PUSH1 0x24 DUP3 ADD MSTORE PUSH20 0x416D6F756E742062656C6F77206D696E696D756D PUSH1 0x60 SHL PUSH1 0x44 DUP3 ADD MSTORE PUSH1 0x64 SWAP1 REVERT JUMPDEST PUSH1 0x40 MLOAD PUSH3 0x461BCD PUSH1 0xE5 SHL DUP2 MSTORE PUSH1 0x20 PUSH1 0x4 DUP3 ADD MSTORE PUSH1 0x16 PUSH1 0x24 DUP3 ADD MSTORE PUSH22 0x416D6F756E742050494F206D757374206265203E203 PUSH1 0x54 SHL PUSH1 0x44 DUP3 ADD MSTORE PUSH1 0x64 SWAP1 REVERT JUMPDEST CALLVALUE PUSH2 0x1A8 JUMPI PUSH1 0x0 CALLDATASIZE PUSH1 0x3 NOT ADD SLT PUSH2 0x1A8 JUMPI PUSH1 0x20 PUSH1 0xFF PUSH1 0x1 SLOAD AND PUSH1 0x40 MLOAD SWAP1 ISZERO ISZERO DUP2 MSTORE RETURN JUMPDEST CALLVALUE PUSH2 0x1A8 JUMPI PUSH1 0xA0 CALLDATASIZE PUSH1 0x3 NOT ADD SLT PUSH2 0x1A8 JUMPI PUSH1 0x4 CALLDATALOAD PUSH2 0xA4E PUSH2 0x1D8B JUMP JUMPDEST CALLER PUSH1 0x0 SWAP1 DUP2 MSTORE PUSH32 0xE84508F2C7FA9C351146748B3025CB78B45DF37D868E48C6A75102FECDEEE645 PUSH1 0x20 MSTORE PUSH1 0x40 SWAP1 KECCAK256 SLOAD PUSH1 0x44 CALLDATALOAD SWAP3 SWAP2 PUSH1 0x84 CALLDATALOAD SWAP2 PUSH1 0xFF AND ISZERO PUSH2 0xD5C JUMPI PUSH2 0xA96 PUSH2 0x2221 JUMP JUMPDEST PUSH1 0x4 DUP1 SLOAD PUSH1 0x40 MLOAD PUSH4 0x5617249B PUSH1 0xE1 SHL DUP2 MSTORE SWAP2 DUP3 ADD DUP6 SWAP1 MSTORE PUSH1 0x20 SWAP1 DUP3 SWAP1 PUSH1 0x24 SWAP1 DUP3 SWAP1 PUSH1 0x1 PUSH1 0x1 PUSH1 0xA0 SHL SUB AND GAS STATICCALL SWAP1 DUP2 ISZERO PUSH2 0x380 JUMPI PUSH1 0x0 SWAP2 PUSH2 0xD2D JUMPI JUMPDEST POP ISZERO PUSH2 0xCE8 JUMPI PUSH1 0x0 DUP4 DUP2 MSTORE PUSH1 0x7 PUSH1 0x20 MSTORE PUSH1 0x40 SWAP1 KECCAK256 SLOAD PUSH1 0x1 PUSH1 0x1 PUSH1 0xA0 SHL SUB AND PUSH2 0xCAB JUMPI DUP2 ISZERO PUSH2 0xC5B JUMPI PUSH1 0x1 DUP1 PUSH1 0xA0 SHL SUB AND SWAP3 DUP4 PUSH1 0x0 MSTORE PUSH1 0x6 PUSH1 0x20 MSTORE PUSH1 0x40 PUSH1 0x0 KECCAK256 SWAP2 PUSH1 0x40 MLOAD SWAP3 PUSH1 0xC0 DUP5 ADD DUP5 DUP2 LT PUSH8 0xFFFFFFFFFFFFFFFF DUP3 GT OR PUSH2 0xC45 JUMPI PUSH1 0x40 MSTORE DUP3 DUP5 MSTORE PUSH1 0x20 DUP5 ADD PUSH1 0x64 CALLDATALOAD DUP2 MSTORE PUSH1 0x40 DUP6 ADD SWAP4 PUSH1 0x0 DUP6 MSTORE PUSH1 0x60 DUP7 ADD SWAP6 PUSH1 0x0 DUP8 MSTORE PUSH1 0x80 DUP2 ADD SWAP1 PUSH1 0x0 DUP3 MSTORE PUSH1 0xA0 DUP2 ADD SWAP6 DUP7 MSTORE DUP9 PUSH1 0x0 MSTORE PUSH1 0x7 PUSH1 0x20 MSTORE PUSH1 0x40 PUSH1 0x0 KECCAK256 DUP11 PUSH12 0xFFFFFFFFFFFFFFFFFFFFFFFF PUSH1 0xA0 SHL DUP3 SLOAD AND OR SWAP1 SSTORE PUSH1 0x3 DUP6 ADD SWAP6 DUP7 SLOAD SWAP7 DUP11 PUSH1 0x0 MSTORE PUSH1 0x4 DUP8 ADD PUSH1 0x20 MSTORE DUP8 PUSH1 0x40 PUSH1 0x0 KECCAK256 SSTORE PUSH9 0x10000000000000000 DUP9 LT ISZERO PUSH2 0xC45 JUMPI DUP8 PUSH2 0xBBD SWAP2 PUSH1 0x1 DUP3 ADD DUP2 SSTORE PUSH2 0x204A JUMP JUMPDEST SWAP4 SWAP1 SWAP4 PUSH2 0xC2F JUMPI PUSH32 0x3A5E0271CD79026F0993AA13E6DD17D1F34284AA2340C1D2C33653B9A4433EE9 SWAP10 PUSH1 0x20 SWAP10 PUSH2 0xC24 SWAP8 PUSH1 0x5 SWAP6 MLOAD DUP8 SSTORE MLOAD PUSH1 0x1 DUP8 ADD SSTORE MLOAD PUSH1 0x2 DUP7 ADD SSTORE PUSH1 0x3 DUP6 ADD SWAP1 MLOAD ISZERO ISZERO PUSH1 0xFF DUP1 NOT DUP4 SLOAD AND SWAP2 AND OR SWAP1 SSTORE MLOAD PUSH1 0x4 DUP5 ADD SSTORE MLOAD SWAP2 ADD SSTORE DUP3 SLOAD PUSH2 0x20B4 JUMP JUMPDEST SWAP1 SSTORE PUSH1 0x40 MLOAD SWAP1 DUP2 MSTORE LOG3 STOP JUMPDEST PUSH4 0x4E487B71 PUSH1 0xE0 SHL PUSH1 0x0 MSTORE PUSH1 0x0 PUSH1 0x4 MSTORE PUSH1 0x24 PUSH1 0x0 REVERT JUMPDEST PUSH4 0x4E487B71 PUSH1 0xE0 SHL PUSH1 0x0 MSTORE PUSH1 0x41 PUSH1 0x4 MSTORE PUSH1 0x24 PUSH1 0x0 REVERT JUMPDEST PUSH1 0x40 MLOAD PUSH3 0x461BCD PUSH1 0xE5 SHL DUP2 MSTORE PUSH1 0x20 PUSH1 0x4 DUP3 ADD MSTORE PUSH1 0x22 PUSH1 0x24 DUP3 ADD MSTORE PUSH32 0x4C6F636B206D6F6E746873206D7573742062652067726561746572207468616E PUSH1 0x44 DUP3 ADD MSTORE PUSH2 0x203 PUSH1 0xF4 SHL PUSH1 0x64 DUP3 ADD MSTORE PUSH1 0x84 SWAP1 REVERT JUMPDEST PUSH1 0x40 MLOAD PUSH3 0x461BCD PUSH1 0xE5 SHL DUP2 MSTORE PUSH1 0x20 PUSH1 0x4 DUP3 ADD MSTORE PUSH1 0x15 PUSH1 0x24 DUP3 ADD MSTORE PUSH21 0x14995C5D595CDD125908185B1C9958591E481CD95D PUSH1 0x5A SHL PUSH1 0x44 DUP3 ADD MSTORE PUSH1 0x64 SWAP1 REVERT JUMPDEST PUSH1 0x40 MLOAD PUSH3 0x461BCD PUSH1 0xE5 SHL DUP2 MSTORE PUSH1 0x20 PUSH1 0x4 DUP3 ADD MSTORE PUSH1 0x19 PUSH1 0x24 DUP3 ADD MSTORE PUSH32 0x5472616E73616374696F6E206E6F7420636F6D706C6574656400000000000000 PUSH1 0x44 DUP3 ADD MSTORE PUSH1 0x64 SWAP1 REVERT JUMPDEST PUSH2 0xD4F SWAP2 POP PUSH1 0x20 RETURNDATASIZE PUSH1 0x20 GT PUSH2 0xD55 JUMPI JUMPDEST PUSH2 0xD47 DUP2 DUP4 PUSH2 0x1DB7 JUMP JUMPDEST DUP2 ADD SWAP1 PUSH2 0x20C1 JUMP JUMPDEST DUP6 PUSH2 0xAD1 JUMP JUMPDEST POP RETURNDATASIZE PUSH2 0xD3D JUMP JUMPDEST PUSH1 0x40 MLOAD PUSH3 0x461BCD PUSH1 0xE5 SHL DUP2 MSTORE PUSH1 0x20 PUSH1 0x4 DUP3 ADD MSTORE PUSH1 0xB PUSH1 0x24 DUP3 ADD MSTORE PUSH11 0x2737BA1036B0B730B3B2B9 PUSH1 0xA9 SHL PUSH1 0x44 DUP3 ADD MSTORE PUSH1 0x64 SWAP1 REVERT JUMPDEST CALLVALUE PUSH2 0x1A8 JUMPI PUSH1 0x20 CALLDATASIZE PUSH1 0x3 NOT ADD SLT PUSH2 0x1A8 JUMPI PUSH1 0x4 CALLDATALOAD PUSH2 0xDAB PUSH2 0x2261 JUMP JUMPDEST PUSH2 0xDB3 PUSH2 0x2221 JUMP JUMPDEST PUSH1 0x0 DUP2 DUP2 MSTORE PUSH1 0x7 PUSH1 0x20 MSTORE PUSH1 0x40 SWAP1 KECCAK256 SLOAD PUSH2 0xDD6 SWAP1 PUSH1 0x1 PUSH1 0x1 PUSH1 0xA0 SHL SUB AND ISZERO ISZERO PUSH2 0x1F70 JUMP JUMPDEST DUP1 PUSH1 0x0 MSTORE PUSH1 0x7 PUSH1 0x20 MSTORE PUSH2 0xDF7 PUSH1 0x1 DUP1 PUSH1 0xA0 SHL SUB PUSH1 0x40 PUSH1 0x0 KECCAK256 SLOAD AND CALLER EQ PUSH2 0x1FBC JUMP JUMPDEST CALLER PUSH1 0x0 MSTORE PUSH1 0x6 PUSH1 0x20 MSTORE PUSH1 0xFF PUSH1 0x3 PUSH2 0xE4A PUSH1 0x40 PUSH1 0x0 KECCAK256 DUP5 PUSH1 0x0 MSTORE PUSH1 0x4 DUP2 ADD PUSH1 0x20 MSTORE DUP3 PUSH1 0x40 PUSH1 0x0 KECCAK256 SLOAD SWAP2 ADD PUSH2 0xE2C DUP2 SLOAD DUP4 LT PUSH2 0x2008 JUMP JUMPDEST PUSH2 0xE45 PUSH1 0x1 PUSH2 0xE3B DUP5 DUP5 PUSH2 0x204A JUMP JUMPDEST POP ADD SLOAD ISZERO ISZERO PUSH2 0x2008 JUMP JUMPDEST PUSH2 0x204A JUMP JUMPDEST POP ADD SLOAD AND PUSH2 0xF44 JUMPI CALLER PUSH1 0x0 MSTORE PUSH1 0x6 PUSH1 0x20 MSTORE PUSH1 0x40 PUSH1 0x0 KECCAK256 SWAP1 DUP1 PUSH1 0x0 MSTORE PUSH1 0x4 DUP3 ADD PUSH1 0x20 MSTORE PUSH1 0x1 PUSH1 0x40 PUSH1 0x0 KECCAK256 SLOAD SWAP3 PUSH1 0x3 PUSH2 0xEEE DUP2 DUP4 ADD SWAP6 DUP5 PUSH2 0xE89 DUP3 DUP10 PUSH2 0x204A JUMP JUMPDEST POP ADD SLOAD SWAP7 PUSH2 0xE45 PUSH1 0x40 MLOAD PUSH4 0x23B872DD PUSH1 0xE0 SHL PUSH1 0x20 DUP3 ADD MSTORE CALLER PUSH1 0x24 DUP3 ADD MSTORE ADDRESS PUSH1 0x44 DUP3 ADD MSTORE DUP10 PUSH1 0x64 DUP3 ADD MSTORE PUSH1 0x64 DUP2 MSTORE PUSH2 0xEC1 PUSH1 0x84 DUP3 PUSH2 0x1DB7 JUMP JUMPDEST DUP8 DUP1 PUSH1 0xA0 SHL SUB PUSH32 0x0 AND PUSH2 0x2292 JUMP JUMPDEST POP ADD DUP3 PUSH1 0xFF NOT DUP3 SLOAD AND OR SWAP1 SSTORE ADD PUSH2 0xF06 DUP4 DUP3 SLOAD PUSH2 0x20B4 JUMP JUMPDEST SWAP1 SSTORE PUSH1 0x40 MLOAD SWAP2 DUP3 MSTORE PUSH32 0x30FC86FB0BD3162E3AABA39B31FEA8F708D17D861DC141DB29FD9D47BEB8CE3A PUSH1 0x20 CALLER SWAP4 LOG3 PUSH1 0x1 PUSH1 0x2 SSTORE PUSH1 0x20 PUSH1 0x40 MLOAD PUSH1 0x1 DUP2 MSTORE RETURN JUMPDEST PUSH1 0x40 MLOAD PUSH3 0x461BCD PUSH1 0xE5 SHL DUP2 MSTORE PUSH1 0x20 PUSH1 0x4 DUP3 ADD MSTORE PUSH1 0x16 PUSH1 0x24 DUP3 ADD MSTORE PUSH22 0x105B1C9958591E4819195C1BDCDA5D1959081554D115 PUSH1 0x52 SHL PUSH1 0x44 DUP3 ADD MSTORE PUSH1 0x64 SWAP1 REVERT JUMPDEST CALLVALUE PUSH2 0x1A8 JUMPI PUSH1 0x20 CALLDATASIZE PUSH1 0x3 NOT ADD SLT PUSH2 0x1A8 JUMPI PUSH1 0x4 CALLDATALOAD PUSH1 0x0 DUP2 DUP2 MSTORE PUSH1 0x7 PUSH1 0x20 MSTORE PUSH1 0x40 SWAP1 KECCAK256 SLOAD PUSH2 0xFB9 SWAP1 PUSH1 0x1 PUSH1 0x1 PUSH1 0xA0 SHL SUB AND ISZERO ISZERO PUSH2 0x1F70 JUMP JUMPDEST DUP1 PUSH1 0x0 MSTORE PUSH1 0x7 PUSH1 0x20 MSTORE PUSH1 0x1 DUP1 PUSH1 0xA0 SHL SUB PUSH1 0x40 PUSH1 0x0 KECCAK256 SLOAD AND PUSH1 0x0 MSTORE PUSH1 0x6 PUSH1 0x20 MSTORE PUSH1 0x40 PUSH1 0x0 KECCAK256 SWAP1 PUSH1 0x0 MSTORE PUSH1 0x4 DUP2 ADD PUSH1 0x20 MSTORE PUSH1 0x3 PUSH1 0x40 PUSH1 0x0 KECCAK256 SLOAD SWAP2 ADD DUP1 SLOAD DUP3 LT ISZERO PUSH2 0x104D JUMPI PUSH1 0xC0 SWAP2 PUSH2 0x1007 SWAP2 PUSH2 0x204A JUMP JUMPDEST POP DUP1 SLOAD SWAP1 PUSH1 0x1 DUP2 ADD SLOAD SWAP1 PUSH1 0x2 DUP2 ADD SLOAD PUSH1 0xFF PUSH1 0x3 DUP4 ADD SLOAD AND SWAP1 PUSH1 0x5 PUSH1 0x4 DUP5 ADD SLOAD SWAP4 ADD SLOAD SWAP4 PUSH1 0x40 MLOAD SWAP6 DUP7 MSTORE PUSH1 0x20 DUP7 ADD MSTORE PUSH1 0x40 DUP6 ADD MSTORE ISZERO ISZERO PUSH1 0x60 DUP5 ADD MSTORE PUSH1 0x80 DUP4 ADD MSTORE PUSH1 0xA0 DUP3 ADD MSTORE RETURN JUMPDEST PUSH1 0x40 MLOAD PUSH3 0x461BCD PUSH1 0xE5 SHL DUP2 MSTORE PUSH1 0x20 PUSH1 0x4 DUP3 ADD MSTORE PUSH1 0x10 PUSH1 0x24 DUP3 ADD MSTORE PUSH16 0x24B73B30B634B2103837B9B4BA34B7B7 PUSH1 0x81 SHL PUSH1 0x44 DUP3 ADD MSTORE PUSH1 0x64 SWAP1 REVERT JUMPDEST CALLVALUE PUSH2 0x1A8 JUMPI PUSH1 0x0 CALLDATASIZE PUSH1 0x3 NOT ADD SLT PUSH2 0x1A8 JUMPI PUSH1 0x40 MLOAD PUSH32 0x0 PUSH1 0x1 PUSH1 0x1 PUSH1 0xA0 SHL SUB AND DUP2 MSTORE PUSH1 0x20 SWAP1 RETURN JUMPDEST CALLVALUE PUSH2 0x1A8 JUMPI PUSH1 0x0 CALLDATASIZE PUSH1 0x3 NOT ADD SLT PUSH2 0x1A8 JUMPI CALLER PUSH1 0x0 SWAP1 DUP2 MSTORE PUSH1 0x0 DUP1 MLOAD PUSH1 0x20 PUSH2 0x22EE DUP4 CODECOPY DUP2 MLOAD SWAP2 MSTORE PUSH1 0x20 MSTORE PUSH1 0x40 SWAP1 KECCAK256 SLOAD PUSH2 0x1104 SWAP1 PUSH1 0xFF AND PUSH2 0x207C JUMP JUMPDEST PUSH1 0x1 SLOAD PUSH1 0xFF DUP2 AND ISZERO PUSH2 0x1143 JUMPI PUSH1 0xFF NOT AND PUSH1 0x1 SSTORE PUSH32 0x5DB9EE0A495BF2E6FF9C91A7834C1BA4FDD244A5E8AA4E537BD38AEAE4B073AA PUSH1 0x20 PUSH1 0x40 MLOAD CALLER DUP2 MSTORE LOG1 STOP JUMPDEST PUSH4 0x8DFC202B PUSH1 0xE0 SHL PUSH1 0x0 MSTORE PUSH1 0x4 PUSH1 0x0 REVERT JUMPDEST CALLVALUE PUSH2 0x1A8 JUMPI PUSH1 0x40 CALLDATASIZE PUSH1 0x3 NOT ADD SLT PUSH2 0x1A8 JUMPI PUSH1 0x24 CALLDATALOAD PUSH1 0x4 CALLDATALOAD PUSH2 0x1173 PUSH2 0x2221 JUMP JUMPDEST PUSH1 0x0 DUP2 DUP2 MSTORE PUSH1 0x7 PUSH1 0x20 MSTORE PUSH1 0x40 SWAP1 KECCAK256 SLOAD PUSH2 0x1196 SWAP1 PUSH1 0x1 PUSH1 0x1 PUSH1 0xA0 SHL SUB AND ISZERO ISZERO PUSH2 0x1F70 JUMP JUMPDEST PUSH1 0x0 DUP2 DUP2 MSTORE PUSH1 0x7 PUSH1 0x20 MSTORE PUSH1 0x40 SWAP1 KECCAK256 SLOAD PUSH2 0x11B9 SWAP1 PUSH1 0x1 PUSH1 0x1 PUSH1 0xA0 SHL SUB AND CALLER EQ PUSH2 0x1FBC JUMP JUMPDEST CALLER PUSH1 0x0 MSTORE PUSH1 0x6 PUSH1 0x20 MSTORE PUSH1 0x40 PUSH1 0x0 KECCAK256 DUP2 PUSH1 0x0 MSTORE PUSH1 0x4 DUP2 ADD PUSH1 0x20 MSTORE PUSH1 0x3 PUSH1 0x40 PUSH1 0x0 KECCAK256 SLOAD SWAP2 ADD SWAP1 PUSH2 0x11E9 DUP3 SLOAD DUP3 LT PUSH2 0x2008 JUMP JUMPDEST PUSH2 0x11F8 PUSH1 0x1 PUSH2 0xE3B DUP4 DUP6 PUSH2 0x204A JUMP JUMPDEST PUSH1 0x2 PUSH2 0x1204 DUP3 DUP5 PUSH2 0x204A JUMP JUMPDEST POP ADD SLOAD PUSH2 0x194D JUMPI PUSH2 0x1219 PUSH1 0x3 SWAP2 PUSH1 0xFF SWAP4 PUSH2 0x204A JUMP JUMPDEST POP ADD SLOAD AND ISZERO PUSH2 0x1910 JUMPI CALLER PUSH1 0x0 MSTORE PUSH1 0x6 PUSH1 0x20 MSTORE PUSH1 0x40 PUSH1 0x0 KECCAK256 SWAP1 DUP1 PUSH1 0x0 MSTORE PUSH1 0x4 DUP3 ADD PUSH1 0x20 MSTORE PUSH1 0x40 PUSH1 0x0 KECCAK256 SLOAD SWAP3 PUSH1 0x5A DUP2 GT PUSH2 0x18D7 JUMPI PUSH1 0x3 DUP4 ADD SWAP3 PUSH2 0x125A DUP6 DUP6 PUSH2 0x204A JUMP JUMPDEST POP SLOAD PUSH1 0x1 PUSH2 0x1268 DUP8 DUP8 PUSH2 0x204A JUMP JUMPDEST POP ADD SLOAD SWAP3 DUP3 SLOAD SWAP4 DUP3 DUP6 LT PUSH2 0x189D JUMPI PUSH1 0x1 DUP5 ADD DUP1 SLOAD SWAP2 DUP1 DUP4 LT PUSH2 0x1864 JUMPI DUP4 PUSH1 0x64 SUB SWAP7 PUSH1 0x64 DUP9 GT PUSH2 0x184E JUMPI PUSH2 0x12C3 DUP3 PUSH1 0x64 PUSH2 0x12A1 DUP12 DUP11 PUSH2 0x1F5D JUMP JUMPDEST DIV SWAP6 PUSH2 0x12BC DUP10 PUSH1 0x64 PUSH2 0x12B5 PUSH1 0x0 SWAP15 DUP7 PUSH2 0x1F5D JUMP JUMPDEST DIV SWAP6 PUSH2 0x1F50 JUMP JUMPDEST DUP11 SSTORE PUSH2 0x1F50 JUMP JUMPDEST DUP4 SSTORE PUSH1 0x3 SLOAD TIMESTAMP PUSH2 0x12C DUP2 ADD SWAP6 SWAP2 PUSH1 0x1 PUSH1 0x1 PUSH1 0xA0 SHL SUB AND SWAP1 DUP7 LT PUSH2 0x183A JUMPI PUSH1 0x60 SWAP3 SWAP2 DUP11 PUSH2 0x104 SWAP3 PUSH1 0x40 MLOAD SWAP9 DUP10 SWAP6 DUP7 SWAP5 PUSH3 0xE8E337 PUSH1 0xE8 SHL DUP7 MSTORE PUSH1 0x1 DUP1 PUSH1 0xA0 SHL SUB PUSH32 0x0 AND PUSH1 0x4 DUP8 ADD MSTORE PUSH1 0x1 DUP1 PUSH1 0xA0 SHL SUB PUSH32 0x0 AND PUSH1 0x24 DUP8 ADD MSTORE DUP14 PUSH1 0x44 DUP8 ADD MSTORE DUP10 PUSH1 0x64 DUP8 ADD MSTORE PUSH1 0x84 DUP7 ADD MSTORE PUSH1 0xA4 DUP6 ADD MSTORE ADDRESS PUSH1 0xC4 DUP6 ADD MSTORE PUSH1 0xE4 DUP5 ADD MSTORE GAS CALL SWAP6 DUP7 ISZERO PUSH2 0x182F JUMPI SWAP1 DUP9 SWAP6 SWAP5 SWAP4 SWAP3 SWAP2 DUP9 SWAP6 DUP13 DUP13 DUP12 SWAP7 DUP13 SWAP12 PUSH2 0x17D4 JUMPI JUMPDEST POP SWAP2 DUP11 PUSH1 0x2 PUSH2 0x13A7 DUP12 SWAP5 DUP11 SWAP9 SWAP8 SWAP7 PUSH2 0x204A JUMP JUMPDEST POP ADD SSTORE PUSH1 0x2 DUP4 ADD PUSH2 0x13B9 DUP13 DUP3 SLOAD PUSH2 0x20B4 JUMP JUMPDEST SWAP1 SSTORE DUP2 DUP2 GT PUSH2 0x17BD JUMPI JUMPDEST POP POP POP DUP2 DUP2 GT PUSH2 0x179F JUMPI JUMPDEST POP POP POP PUSH1 0x40 MLOAD SWAP3 DUP4 MSTORE PUSH1 0x20 DUP4 ADD MSTORE DUP4 PUSH1 0x40 DUP4 ADD MSTORE PUSH1 0x60 DUP3 ADD MSTORE PUSH32 0xEF15D1205EDE66926E7D68D76794BBCA9B64DFF11B1596BB376ED957125311EC PUSH1 0x80 CALLER SWAP3 LOG3 PUSH1 0x40 MLOAD PUSH4 0x95EA7B3 PUSH1 0xE0 SHL DUP2 MSTORE PUSH32 0x0 PUSH1 0x1 PUSH1 0x1 PUSH1 0xA0 SHL SUB DUP2 DUP2 AND PUSH1 0x4 DUP5 ADD MSTORE PUSH1 0x24 DUP4 ADD DUP5 SWAP1 MSTORE PUSH32 0x0 AND SWAP7 SWAP1 SWAP6 SWAP1 SWAP2 PUSH1 0x20 DUP2 PUSH1 0x44 DUP2 DUP9 DUP13 GAS CALL DUP1 ISZERO PUSH2 0x1794 JUMPI PUSH2 0x1777 JUMPI JUMPDEST POP PUSH1 0x5 PUSH2 0x149B DUP4 DUP4 PUSH2 0x204A JUMP JUMPDEST POP ADD SLOAD DUP1 PUSH3 0x278D00 MUL SWAP1 PUSH3 0x278D00 DUP3 DIV SUB PUSH2 0x1763 JUMPI PUSH2 0x14BD SWAP1 SWAP8 SWAP7 SWAP8 TIMESTAMP PUSH2 0x20B4 JUMP JUMPDEST SWAP7 PUSH1 0x40 SWAP7 DUP9 DUP9 MLOAD SWAP3 PUSH2 0x14CF DUP11 DUP6 PUSH2 0x1DB7 JUMP JUMPDEST PUSH1 0x10 DUP5 MSTORE PUSH16 0x181899199A1A9B1B9C1CB0B131B232B3 PUSH1 0x81 SHL PUSH1 0x20 DUP6 ADD MSTORE DUP7 DUP9 DUP12 MLOAD PUSH2 0x14FA DUP14 DUP3 PUSH2 0x1DB7 JUMP JUMPDEST PUSH1 0x6 DUP2 MSTORE DUP13 PUSH1 0x20 DUP3 ADD SWAP8 PUSH1 0x1F NOT DUP3 ADD CALLDATASIZE DUP11 CALLDATACOPY DUP4 JUMPDEST PUSH1 0x3 DUP2 LT PUSH2 0x167F JUMPI POP POP SWAP6 PUSH1 0xE4 SWAP2 PUSH2 0x15BF DUP9 PUSH2 0x1578 PUSH1 0x2 PUSH1 0x35 PUSH1 0x20 SWAP13 MLOAD DUP1 SWAP15 PUSH2 0x155B DUP16 DUP4 ADD SWAP9 PUSH21 0x3D9136111D10112824A7902628102637B1B5B2B91 PUSH1 0x5D SHL DUP11 MSTORE MLOAD DUP1 SWAP3 DUP6 DUP6 ADD SWAP1 PUSH2 0x223E JUMP JUMPDEST DUP2 ADD PUSH2 0x227D PUSH1 0xF0 SHL DUP4 DUP3 ADD MSTORE SUB ADD DUP14 PUSH1 0x1D NOT DUP3 ADD SWAP1 MSTORE ADD DUP13 PUSH2 0x1DB7 JUMP JUMPDEST MLOAD SWAP10 DUP11 SWAP9 DUP10 SWAP8 DUP9 SWAP6 PUSH4 0x7279357 PUSH1 0xE0 SHL DUP8 MSTORE CALLER PUSH1 0x4 DUP9 ADD MSTORE PUSH1 0x24 DUP8 ADD MSTORE PUSH1 0x1 PUSH1 0x44 DUP8 ADD MSTORE PUSH1 0x64 DUP7 ADD MSTORE PUSH1 0x84 DUP6 ADD MSTORE PUSH1 0xC0 PUSH1 0xA4 DUP6 ADD MSTORE MLOAD DUP1 SWAP3 DUP2 PUSH1 0xC4 DUP7 ADD MSTORE DUP6 DUP6 ADD SWAP1 PUSH2 0x223E JUMP JUMPDEST PUSH1 0x1F ADD PUSH1 0x1F NOT AND DUP2 ADD SUB ADD SWAP3 PUSH1 0x1 PUSH1 0x1 PUSH1 0xA0 SHL SUB AND GAS CALL SWAP5 DUP6 ISZERO PUSH2 0x1674 JUMPI DUP1 SWAP6 PUSH2 0x1637 JUMPI JUMPDEST POP POP SWAP2 DUP4 PUSH1 0x4 PUSH2 0x1618 PUSH1 0x20 SWAP10 SWAP5 PUSH32 0x1C2FAC9A217B58D9184FEAEEA4F883F176E185406B96166FBCAD47DC04861111 SWAP7 PUSH2 0x204A JUMP JUMPDEST POP ADD SSTORE DUP6 MLOAD SWAP4 DUP5 MSTORE PUSH1 0x20 DUP5 ADD MSTORE PUSH1 0x40 DUP4 ADD MSTORE CALLER SWAP2 PUSH1 0x60 SWAP1 LOG3 MLOAD PUSH1 0x1 DUP2 MSTORE RETURN JUMPDEST SWAP1 SWAP2 SWAP3 SWAP5 POP PUSH1 0x20 DUP3 RETURNDATASIZE PUSH1 0x20 GT PUSH2 0x166C JUMPI JUMPDEST DUP2 PUSH2 0x1655 PUSH1 0x20 SWAP4 DUP4 PUSH2 0x1DB7 JUMP JUMPDEST DUP2 ADD SUB SLT PUSH2 0x1669 JUMPI POP MLOAD SWAP3 SWAP1 DUP1 PUSH1 0x4 PUSH2 0x15E4 JUMP JUMPDEST DUP1 REVERT JUMPDEST RETURNDATASIZE SWAP2 POP PUSH2 0x1648 JUMP JUMPDEST DUP8 MLOAD SWAP1 RETURNDATASIZE SWAP1 DUP3 RETURNDATACOPY RETURNDATASIZE SWAP1 REVERT JUMPDEST SWAP4 POP SWAP4 POP POP SWAP3 SWAP5 SWAP4 POP DUP1 PUSH1 0x2 SUB PUSH1 0x2 DUP2 GT PUSH2 0x174F JUMPI PUSH1 0x1 PUSH1 0x1 PUSH1 0xFD SHL SUB DUP2 AND DUP2 SUB PUSH2 0x174F JUMPI CALLER SWAP1 PUSH1 0x3 SHL SHR PUSH1 0xFF PUSH1 0xF8 SHL PUSH2 0x16BF PUSH1 0xF DUP4 PUSH1 0x4 SHR AND DUP6 PUSH2 0x2281 JUMP JUMPDEST MLOAD AND SWAP1 DUP3 PUSH1 0x1 SHL SWAP2 DUP4 DUP4 DIV PUSH1 0x2 EQ DUP5 ISZERO OR ISZERO PUSH2 0x173B JUMPI DUP13 BYTE PUSH2 0x16E1 DUP4 DUP8 PUSH2 0x2281 JUMP JUMPDEST MSTORE8 PUSH1 0x1 PUSH1 0x1 PUSH1 0xF8 SHL SUB NOT SWAP1 PUSH2 0x16F9 SWAP1 PUSH1 0xF AND DUP6 PUSH2 0x2281 JUMP JUMPDEST MLOAD AND PUSH1 0x1 DUP3 ADD DUP1 SWAP3 GT PUSH2 0x1727 JUMPI SWAP1 PUSH2 0x1717 PUSH1 0x1 SWAP4 SWAP3 DUP14 BYTE SWAP2 DUP7 PUSH2 0x2281 JUMP JUMPDEST MSTORE8 ADD DUP13 SWAP4 SWAP5 SWAP3 DUP13 DUP11 SWAP4 DUP13 SWAP4 PUSH2 0x150E JUMP JUMPDEST PUSH4 0x4E487B71 PUSH1 0xE0 SHL DUP13 MSTORE PUSH1 0x11 PUSH1 0x4 MSTORE PUSH1 0x24 DUP13 REVERT JUMPDEST PUSH4 0x4E487B71 PUSH1 0xE0 SHL DUP14 MSTORE PUSH1 0x11 PUSH1 0x4 MSTORE PUSH1 0x24 DUP14 REVERT JUMPDEST PUSH4 0x4E487B71 PUSH1 0xE0 SHL DUP12 MSTORE PUSH1 0x11 PUSH1 0x4 MSTORE PUSH1 0x24 DUP12 REVERT JUMPDEST PUSH4 0x4E487B71 PUSH1 0xE0 SHL DUP6 MSTORE PUSH1 0x11 PUSH1 0x4 MSTORE PUSH1 0x24 DUP6 REVERT JUMPDEST PUSH2 0x178F SWAP1 PUSH1 0x20 RETURNDATASIZE PUSH1 0x20 GT PUSH2 0xD55 JUMPI PUSH2 0xD47 DUP2 DUP4 PUSH2 0x1DB7 JUMP JUMPDEST PUSH2 0x148E JUMP JUMPDEST PUSH1 0x40 MLOAD RETURNDATASIZE DUP8 DUP3 RETURNDATACOPY RETURNDATASIZE SWAP1 REVERT JUMPDEST PUSH2 0x17B3 SWAP2 PUSH2 0x17AC SWAP2 PUSH2 0x1F50 JUMP JUMPDEST DUP3 SLOAD PUSH2 0x20B4 JUMP JUMPDEST SWAP1 SSTORE DUP10 DUP2 DUP2 PUSH2 0x13CE JUMP JUMPDEST PUSH2 0x17CA SWAP2 PUSH2 0x17AC SWAP2 PUSH2 0x1F50 JUMP JUMPDEST SWAP1 SSTORE DUP13 DUP7 DUP2 PUSH2 0x13C3 JUMP JUMPDEST SWAP6 SWAP10 POP POP POP SWAP6 POP SWAP3 POP SWAP3 SWAP6 POP PUSH1 0x60 DUP2 RETURNDATASIZE PUSH1 0x60 GT PUSH2 0x1827 JUMPI JUMPDEST DUP2 PUSH2 0x17F9 PUSH1 0x60 SWAP4 DUP4 PUSH2 0x1DB7 JUMP JUMPDEST DUP2 ADD SUB SLT PUSH2 0x1823 JUMPI DUP1 MLOAD PUSH1 0x20 DUP3 ADD MLOAD PUSH1 0x40 SWAP1 SWAP3 ADD MLOAD SWAP7 DUP10 SWAP7 SWAP2 SWAP6 SWAP1 SWAP5 SWAP3 SWAP4 SWAP2 SWAP3 SWAP2 SWAP1 DUP13 DUP13 DUP7 PUSH2 0x1394 JUMP JUMPDEST DUP7 DUP1 REVERT JUMPDEST RETURNDATASIZE SWAP2 POP PUSH2 0x17EC JUMP JUMPDEST PUSH1 0x40 MLOAD RETURNDATASIZE DUP10 DUP3 RETURNDATACOPY RETURNDATASIZE SWAP1 REVERT JUMPDEST PUSH4 0x4E487B71 PUSH1 0xE0 SHL DUP11 MSTORE PUSH1 0x11 PUSH1 0x4 MSTORE PUSH1 0x24 DUP11 REVERT JUMPDEST PUSH4 0x4E487B71 PUSH1 0xE0 SHL PUSH1 0x0 MSTORE PUSH1 0x11 PUSH1 0x4 MSTORE PUSH1 0x24 PUSH1 0x0 REVERT JUMPDEST PUSH1 0x40 MLOAD PUSH3 0x461BCD PUSH1 0xE5 SHL DUP2 MSTORE PUSH1 0x20 PUSH1 0x4 DUP3 ADD MSTORE PUSH1 0x11 PUSH1 0x24 DUP3 ADD MSTORE PUSH17 0x125B9CDD59999A58DA595B9D081554D115 PUSH1 0x7A SHL PUSH1 0x44 DUP3 ADD MSTORE PUSH1 0x64 SWAP1 REVERT JUMPDEST PUSH1 0x40 MLOAD PUSH3 0x461BCD PUSH1 0xE5 SHL DUP2 MSTORE PUSH1 0x20 PUSH1 0x4 DUP3 ADD MSTORE PUSH1 0x12 PUSH1 0x24 DUP3 ADD MSTORE PUSH18 0x496E73756666696369656E742050494F4E45 PUSH1 0x70 SHL PUSH1 0x44 DUP3 ADD MSTORE PUSH1 0x64 SWAP1 REVERT JUMPDEST PUSH1 0x40 MLOAD PUSH3 0x461BCD PUSH1 0xE5 SHL DUP2 MSTORE PUSH1 0x20 PUSH1 0x4 DUP3 ADD MSTORE PUSH1 0x11 PUSH1 0x24 DUP3 ADD MSTORE PUSH17 0xA6D8D2E0E0C2CECA40E8DEDE40D0D2CED PUSH1 0x7B SHL PUSH1 0x44 DUP3 ADD MSTORE PUSH1 0x64 SWAP1 REVERT JUMPDEST PUSH1 0x40 MLOAD PUSH3 0x461BCD PUSH1 0xE5 SHL DUP2 MSTORE PUSH1 0x20 PUSH1 0x4 DUP3 ADD MSTORE PUSH1 0x15 PUSH1 0x24 DUP3 ADD MSTORE PUSH21 0x1554D115081B9BDD081C1C9BDD9A591959081E595D PUSH1 0x5A SHL PUSH1 0x44 DUP3 ADD MSTORE PUSH1 0x64 SWAP1 REVERT JUMPDEST PUSH1 0x40 MLOAD PUSH3 0x461BCD PUSH1 0xE5 SHL DUP2 MSTORE PUSH1 0x20 PUSH1 0x4 DUP3 ADD MSTORE PUSH1 0x21 PUSH1 0x24 DUP3 ADD MSTORE PUSH32 0x4164646974696F6E616C206C69717569646974792072657175657374206D6164 PUSH1 0x44 DUP3 ADD MSTORE PUSH1 0x65 PUSH1 0xF8 SHL PUSH1 0x64 DUP3 ADD MSTORE PUSH1 0x84 SWAP1 REVERT JUMPDEST CALLVALUE PUSH2 0x1A8 JUMPI PUSH1 0x40 CALLDATASIZE PUSH1 0x3 NOT ADD SLT PUSH2 0x1A8 JUMPI PUSH2 0x19B5 PUSH2 0x1D8B JUMP JUMPDEST CALLER PUSH1 0x1 PUSH1 0x1 PUSH1 0xA0 SHL SUB DUP3 AND SUB PUSH2 0x19D1 JUMPI PUSH2 0x28A SWAP1 PUSH1 0x4 CALLDATALOAD PUSH2 0x219F JUMP JUMPDEST PUSH4 0x334BD919 PUSH1 0xE1 SHL PUSH1 0x0 MSTORE PUSH1 0x4 PUSH1 0x0 REVERT JUMPDEST CALLVALUE PUSH2 0x1A8 JUMPI PUSH1 0x40 CALLDATASIZE PUSH1 0x3 NOT ADD SLT PUSH2 0x1A8 JUMPI PUSH2 0x28A PUSH1 0x4 CALLDATALOAD PUSH2 0x1A01 PUSH2 0x1D8B JUMP JUMPDEST SWAP1 PUSH2 0x1A1D PUSH2 0x280 DUP3 PUSH1 0x0 MSTORE PUSH1 0x0 PUSH1 0x20 MSTORE PUSH1 0x1 PUSH1 0x40 PUSH1 0x0 KECCAK256 ADD SLOAD SWAP1 JUMP JUMPDEST PUSH2 0x2114 JUMP JUMPDEST CALLVALUE PUSH2 0x1A8 JUMPI PUSH1 0x20 CALLDATASIZE PUSH1 0x3 NOT ADD SLT PUSH2 0x1A8 JUMPI PUSH1 0x20 PUSH2 0x1A4F PUSH1 0x4 CALLDATALOAD PUSH1 0x0 MSTORE PUSH1 0x0 PUSH1 0x20 MSTORE PUSH1 0x1 PUSH1 0x40 PUSH1 0x0 KECCAK256 ADD SLOAD SWAP1 JUMP JUMPDEST PUSH1 0x40 MLOAD SWAP1 DUP2 MSTORE RETURN JUMPDEST CALLVALUE PUSH2 0x1A8 JUMPI PUSH1 0x40 CALLDATASIZE PUSH1 0x3 NOT ADD SLT PUSH2 0x1A8 JUMPI PUSH1 0x4 CALLDATALOAD PUSH1 0x0 PUSH1 0x24 CALLDATALOAD PUSH2 0x1A78 PUSH2 0x1DED JUMP JUMPDEST PUSH1 0x3 SLOAD PUSH1 0x40 MLOAD PUSH4 0x2B58577B PUSH1 0xE2 SHL DUP2 MSTORE PUSH1 0x4 DUP2 ADD DUP8 SWAP1 MSTORE PUSH1 0x24 DUP2 ADD DUP4 SWAP1 MSTORE PUSH1 0x44 DUP2 ADD DUP5 SWAP1 MSTORE SWAP2 SWAP6 SWAP2 SWAP5 SWAP2 SWAP3 PUSH1 0x1 PUSH1 0x1 PUSH1 0xA0 SHL SUB SWAP1 SWAP2 AND SWAP1 PUSH1 0x20 DUP7 PUSH1 0x64 DUP2 DUP6 GAS STATICCALL SWAP6 DUP7 ISZERO PUSH2 0x1C8A JUMPI SWAP1 DUP8 SWAP3 SWAP2 DUP5 SWAP8 PUSH2 0x1C4D JUMPI JUMPDEST POP DUP6 DUP8 GT PUSH2 0x1BB1 JUMPI POP POP POP POP PUSH2 0x1AE2 SWAP1 SWAP3 DUP1 SWAP3 PUSH2 0x1F50 JUMP JUMPDEST SWAP1 PUSH1 0x0 SWAP1 JUMPDEST PUSH1 0x40 MLOAD PUSH4 0x18160DDD PUSH1 0xE0 SHL DUP2 MSTORE PUSH1 0x20 DUP2 PUSH1 0x4 DUP2 PUSH32 0x0 PUSH1 0x1 PUSH1 0x1 PUSH1 0xA0 SHL SUB AND GAS STATICCALL DUP1 ISZERO PUSH2 0x380 JUMPI PUSH1 0x0 SWAP1 PUSH2 0x1B7D JUMPI JUMPDEST PUSH2 0x1B3F SWAP2 POP DUP6 PUSH2 0x1F5D JUMP JUMPDEST SWAP5 DUP1 ISZERO PUSH2 0x1B67 JUMPI PUSH1 0xA0 SWAP6 DIV SWAP1 PUSH1 0x40 MLOAD SWAP5 DUP6 MSTORE PUSH1 0x20 DUP6 ADD MSTORE PUSH1 0x40 DUP5 ADD MSTORE PUSH1 0x60 DUP4 ADD MSTORE PUSH1 0x80 DUP3 ADD MSTORE RETURN JUMPDEST PUSH4 0x4E487B71 PUSH1 0xE0 SHL PUSH1 0x0 MSTORE PUSH1 0x12 PUSH1 0x4 MSTORE PUSH1 0x24 PUSH1 0x0 REVERT JUMPDEST POP PUSH1 0x20 DUP2 RETURNDATASIZE PUSH1 0x20 GT PUSH2 0x1BA9 JUMPI JUMPDEST DUP2 PUSH2 0x1B97 PUSH1 0x20 SWAP4 DUP4 PUSH2 0x1DB7 JUMP JUMPDEST DUP2 ADD SUB SLT PUSH2 0x1A8 JUMPI PUSH2 0x1B3F SWAP1 MLOAD PUSH2 0x1B34 JUMP JUMPDEST RETURNDATASIZE SWAP2 POP PUSH2 0x1B8A JUMP JUMPDEST PUSH1 0x40 MLOAD PUSH4 0x2B58577B PUSH1 0xE2 SHL DUP2 MSTORE PUSH1 0x4 DUP2 ADD DUP8 SWAP1 MSTORE PUSH1 0x24 DUP2 ADD SWAP2 SWAP1 SWAP2 MSTORE PUSH1 0x44 DUP2 ADD SWAP3 SWAP1 SWAP3 MSTORE SWAP4 SWAP5 POP SWAP2 SWAP3 PUSH1 0x20 SWAP1 DUP4 SWAP1 PUSH1 0x64 SWAP1 DUP3 SWAP1 GAS STATICCALL SWAP1 DUP2 ISZERO PUSH2 0x1C41 JUMPI DUP1 SWAP2 PUSH2 0x1C0A JUMPI JUMPDEST POP PUSH2 0x1C02 SWAP2 POP DUP1 SWAP4 SWAP3 PUSH2 0x1F50 JUMP JUMPDEST PUSH1 0x0 SWAP2 PUSH2 0x1AE7 JUMP JUMPDEST SWAP1 POP PUSH1 0x20 DUP3 RETURNDATASIZE PUSH1 0x20 GT PUSH2 0x1C39 JUMPI JUMPDEST DUP2 PUSH2 0x1C25 PUSH1 0x20 SWAP4 DUP4 PUSH2 0x1DB7 JUMP JUMPDEST DUP2 ADD SUB SLT PUSH2 0x1669 JUMPI POP PUSH2 0x1C02 SWAP1 MLOAD DUP6 PUSH2 0x1BF4 JUMP JUMPDEST RETURNDATASIZE SWAP2 POP PUSH2 0x1C18 JUMP JUMPDEST PUSH1 0x40 MLOAD SWAP1 RETURNDATASIZE SWAP1 DUP3 RETURNDATACOPY RETURNDATASIZE SWAP1 REVERT JUMPDEST SWAP2 SWAP3 POP SWAP6 POP PUSH1 0x20 DUP2 RETURNDATASIZE PUSH1 0x20 GT PUSH2 0x1C82 JUMPI JUMPDEST DUP2 PUSH2 0x1C6B PUSH1 0x20 SWAP4 DUP4 PUSH2 0x1DB7 JUMP JUMPDEST DUP2 ADD SUB SLT PUSH2 0x1C7E JUMPI SWAP1 DUP7 SWAP2 MLOAD SWAP6 DUP9 PUSH2 0x1ACA JUMP JUMPDEST DUP3 DUP1 REVERT JUMPDEST RETURNDATASIZE SWAP2 POP PUSH2 0x1C5E JUMP JUMPDEST PUSH1 0x40 MLOAD RETURNDATASIZE DUP6 DUP3 RETURNDATACOPY RETURNDATASIZE SWAP1 REVERT JUMPDEST CALLVALUE PUSH2 0x1A8 JUMPI PUSH1 0x20 CALLDATASIZE PUSH1 0x3 NOT ADD SLT PUSH2 0x1A8 JUMPI PUSH2 0x330 PUSH1 0x20 PUSH2 0x1CB3 PUSH2 0x1DED JUMP JUMPDEST PUSH1 0x3 SLOAD PUSH1 0x40 MLOAD PUSH4 0x2B58577B PUSH1 0xE2 SHL DUP2 MSTORE PUSH1 0x4 DUP1 CALLDATALOAD SWAP1 DUP3 ADD MSTORE PUSH1 0x24 DUP2 ADD SWAP3 SWAP1 SWAP3 MSTORE PUSH1 0x44 DUP3 ADD SWAP3 SWAP1 SWAP3 MSTORE SWAP3 DUP4 SWAP2 PUSH1 0x1 PUSH1 0x1 PUSH1 0xA0 SHL SUB AND SWAP1 DUP3 SWAP1 DUP2 SWAP1 PUSH1 0x64 DUP3 ADD SWAP1 JUMP JUMPDEST CALLVALUE PUSH2 0x1A8 JUMPI PUSH1 0x0 CALLDATASIZE PUSH1 0x3 NOT ADD SLT PUSH2 0x1A8 JUMPI PUSH1 0x20 PUSH1 0x5 SLOAD PUSH1 0x40 MLOAD SWAP1 DUP2 MSTORE RETURN JUMPDEST CALLVALUE PUSH2 0x1A8 JUMPI PUSH1 0x0 CALLDATASIZE PUSH1 0x3 NOT ADD SLT PUSH2 0x1A8 JUMPI PUSH1 0x40 PUSH2 0x1D2C PUSH2 0x1DED JUMP JUMPDEST DUP3 MLOAD SWAP2 DUP3 MSTORE PUSH1 0x20 DUP3 ADD MSTORE RETURN JUMPDEST CALLVALUE PUSH2 0x1A8 JUMPI PUSH1 0x20 CALLDATASIZE PUSH1 0x3 NOT ADD SLT PUSH2 0x1A8 JUMPI PUSH1 0x4 CALLDATALOAD SWAP1 PUSH4 0xFFFFFFFF PUSH1 0xE0 SHL DUP3 AND DUP1 SWAP3 SUB PUSH2 0x1A8 JUMPI PUSH1 0x20 SWAP2 PUSH4 0x7965DB0B PUSH1 0xE0 SHL DUP2 EQ SWAP1 DUP2 ISZERO PUSH2 0x1D7A JUMPI JUMPDEST POP ISZERO ISZERO DUP2 MSTORE RETURN JUMPDEST PUSH4 0x1FFC9A7 PUSH1 0xE0 SHL EQ SWAP1 POP DUP4 PUSH2 0x1D73 JUMP JUMPDEST PUSH1 0x24 CALLDATALOAD SWAP1 PUSH1 0x1 PUSH1 0x1 PUSH1 0xA0 SHL SUB DUP3 AND DUP3 SUB PUSH2 0x1A8 JUMPI JUMP JUMPDEST PUSH1 0x4 CALLDATALOAD SWAP1 PUSH1 0x1 PUSH1 0x1 PUSH1 0xA0 SHL SUB DUP3 AND DUP3 SUB PUSH2 0x1A8 JUMPI JUMP JUMPDEST SWAP1 PUSH1 0x1F DUP1 NOT SWAP2 ADD AND DUP2 ADD SWAP1 DUP2 LT PUSH8 0xFFFFFFFFFFFFFFFF DUP3 GT OR PUSH2 0xC45 JUMPI PUSH1 0x40 MSTORE JUMP JUMPDEST MLOAD SWAP1 PUSH1 0x1 PUSH1 0x1 PUSH1 0x70 SHL SUB DUP3 AND DUP3 SUB PUSH2 0x1A8 JUMPI JUMP JUMPDEST PUSH1 0x40 MLOAD PUSH4 0x240BC6B PUSH1 0xE2 SHL DUP2 MSTORE PUSH32 0x0 PUSH1 0x1 PUSH1 0x1 PUSH1 0xA0 SHL SUB AND SWAP1 PUSH1 0x60 DUP2 PUSH1 0x4 DUP2 DUP6 GAS STATICCALL SWAP1 DUP2 ISZERO PUSH2 0x380 JUMPI PUSH1 0x0 SWAP1 DUP2 SWAP3 PUSH2 0x1EF6 JUMPI JUMPDEST POP PUSH1 0x20 PUSH1 0x1 PUSH1 0x1 PUSH1 0x70 SHL SUB DUP1 PUSH1 0x4 SWAP4 AND SWAP4 AND SWAP4 PUSH1 0x40 MLOAD SWAP3 DUP4 DUP1 SWAP3 PUSH4 0xDFE1681 PUSH1 0xE0 SHL DUP3 MSTORE GAS STATICCALL SWAP1 DUP2 ISZERO PUSH2 0x380 JUMPI PUSH1 0x0 SWAP2 PUSH2 0x1EB0 JUMPI JUMPDEST POP PUSH1 0x1 PUSH1 0x1 PUSH1 0xA0 SHL SUB SWAP1 DUP2 AND PUSH32 0x0 SWAP1 SWAP2 AND SUB PUSH2 0x1EAC JUMPI SWAP2 JUMP JUMPDEST SWAP1 SWAP2 JUMP JUMPDEST PUSH1 0x20 DUP2 RETURNDATASIZE PUSH1 0x20 GT PUSH2 0x1EEE JUMPI JUMPDEST DUP2 PUSH2 0x1EC9 PUSH1 0x20 SWAP4 DUP4 PUSH2 0x1DB7 JUMP JUMPDEST DUP2 ADD SUB SLT PUSH2 0x1EEA JUMPI MLOAD SWAP1 PUSH1 0x1 PUSH1 0x1 PUSH1 0xA0 SHL SUB DUP3 AND DUP3 SUB PUSH2 0x1669 JUMPI POP CODESIZE PUSH2 0x1E74 JUMP JUMPDEST POP DUP1 REVERT JUMPDEST RETURNDATASIZE SWAP2 POP PUSH2 0x1EBC JUMP JUMPDEST SWAP2 POP PUSH1 0x60 DUP3 RETURNDATASIZE PUSH1 0x60 GT PUSH2 0x1F48 JUMPI JUMPDEST DUP2 PUSH2 0x1F11 PUSH1 0x60 SWAP4 DUP4 PUSH2 0x1DB7 JUMP JUMPDEST DUP2 ADD SUB SLT PUSH2 0x1669 JUMPI PUSH2 0x1F22 DUP3 PUSH2 0x1DD9 JUMP JUMPDEST SWAP1 PUSH1 0x40 PUSH2 0x1F31 PUSH1 0x20 DUP6 ADD PUSH2 0x1DD9 JUMP JUMPDEST SWAP4 ADD MLOAD PUSH4 0xFFFFFFFF DUP2 AND SUB PUSH2 0x1669 JUMPI POP PUSH1 0x20 PUSH2 0x1E3F JUMP JUMPDEST RETURNDATASIZE SWAP2 POP PUSH2 0x1F04 JUMP JUMPDEST SWAP2 SWAP1 DUP3 SUB SWAP2 DUP3 GT PUSH2 0x184E JUMPI JUMP JUMPDEST DUP2 DUP2 MUL SWAP3 SWAP2 DUP2 ISZERO SWAP2 DUP5 DIV EQ OR ISZERO PUSH2 0x184E JUMPI JUMP JUMPDEST ISZERO PUSH2 0x1F77 JUMPI JUMP JUMPDEST PUSH1 0x40 MLOAD PUSH3 0x461BCD PUSH1 0xE5 SHL DUP2 MSTORE PUSH1 0x20 PUSH1 0x4 DUP3 ADD MSTORE PUSH1 0x18 PUSH1 0x24 DUP3 ADD MSTORE PUSH32 0x52657175657374496420646F6573206E6F742065786973740000000000000000 PUSH1 0x44 DUP3 ADD MSTORE PUSH1 0x64 SWAP1 REVERT JUMPDEST ISZERO PUSH2 0x1FC3 JUMPI JUMP JUMPDEST PUSH1 0x40 MLOAD PUSH3 0x461BCD PUSH1 0xE5 SHL DUP2 MSTORE PUSH1 0x20 PUSH1 0x4 DUP3 ADD MSTORE PUSH1 0x1D PUSH1 0x24 DUP3 ADD MSTORE PUSH32 0x4E6F7420746865206F776E6572206F6620746869732072657175657374000000 PUSH1 0x44 DUP3 ADD MSTORE PUSH1 0x64 SWAP1 REVERT JUMPDEST ISZERO PUSH2 0x200F JUMPI JUMP JUMPDEST PUSH1 0x40 MLOAD PUSH3 0x461BCD PUSH1 0xE5 SHL DUP2 MSTORE PUSH1 0x20 PUSH1 0x4 DUP3 ADD MSTORE PUSH1 0x13 PUSH1 0x24 DUP3 ADD MSTORE PUSH19 0x24B73B30B634B2103A3930B739B0B1BA34B7B7 PUSH1 0x69 SHL PUSH1 0x44 DUP3 ADD MSTORE PUSH1 0x64 SWAP1 REVERT JUMPDEST DUP1 SLOAD DUP3 LT ISZERO PUSH2 0x2066 JUMPI PUSH1 0x0 MSTORE PUSH1 0x6 PUSH1 0x20 PUSH1 0x0 KECCAK256 SWAP2 MUL ADD SWAP1 PUSH1 0x0 SWAP1 JUMP JUMPDEST PUSH4 0x4E487B71 PUSH1 0xE0 SHL PUSH1 0x0 MSTORE PUSH1 0x32 PUSH1 0x4 MSTORE PUSH1 0x24 PUSH1 0x0 REVERT JUMPDEST ISZERO PUSH2 0x2083 JUMPI JUMP JUMPDEST PUSH1 0x40 MLOAD PUSH3 0x461BCD PUSH1 0xE5 SHL DUP2 MSTORE PUSH1 0x20 PUSH1 0x4 DUP3 ADD MSTORE PUSH1 0x9 PUSH1 0x24 DUP3 ADD MSTORE PUSH9 0x2737BA1037BBB732B9 PUSH1 0xB9 SHL PUSH1 0x44 DUP3 ADD MSTORE PUSH1 0x64 SWAP1 REVERT JUMPDEST SWAP2 SWAP1 DUP3 ADD DUP1 SWAP3 GT PUSH2 0x184E JUMPI JUMP JUMPDEST SWAP1 DUP2 PUSH1 0x20 SWAP2 SUB SLT PUSH2 0x1A8 JUMPI MLOAD DUP1 ISZERO ISZERO DUP2 SUB PUSH2 0x1A8 JUMPI SWAP1 JUMP JUMPDEST PUSH1 0x0 DUP2 DUP2 MSTORE PUSH1 0x20 DUP2 DUP2 MSTORE PUSH1 0x40 DUP1 DUP4 KECCAK256 CALLER DUP5 MSTORE SWAP1 SWAP2 MSTORE SWAP1 KECCAK256 SLOAD PUSH1 0xFF AND ISZERO PUSH2 0x20FC JUMPI POP JUMP JUMPDEST PUSH4 0xE2517D3F PUSH1 0xE0 SHL PUSH1 0x0 MSTORE CALLER PUSH1 0x4 MSTORE PUSH1 0x24 MSTORE PUSH1 0x44 PUSH1 0x0 REVERT JUMPDEST PUSH1 0x0 DUP2 DUP2 MSTORE PUSH1 0x20 DUP2 DUP2 MSTORE PUSH1 0x40 DUP1 DUP4 KECCAK256 PUSH1 0x1 PUSH1 0x1 PUSH1 0xA0 SHL SUB DUP7 AND DUP5 MSTORE SWAP1 SWAP2 MSTORE SWAP1 KECCAK256 SLOAD PUSH1 0xFF AND PUSH2 0x2198 JUMPI PUSH1 0x0 DUP2 DUP2 MSTORE PUSH1 0x20 DUP2 DUP2 MSTORE PUSH1 0x40 DUP1 DUP4 KECCAK256 PUSH1 0x1 PUSH1 0x1 PUSH1 0xA0 SHL SUB SWAP6 SWAP1 SWAP6 AND DUP1 DUP5 MSTORE SWAP5 SWAP1 SWAP2 MSTORE DUP2 KECCAK256 DUP1 SLOAD PUSH1 0xFF NOT AND PUSH1 0x1 OR SWAP1 SSTORE CALLER SWAP3 SWAP2 SWAP1 PUSH32 0x2F8788117E7EFF1D82E926EC794901D17C78024A50270940304540A733656F0D SWAP1 DUP1 LOG4 PUSH1 0x1 SWAP1 JUMP JUMPDEST POP POP PUSH1 0x0 SWAP1 JUMP JUMPDEST PUSH1 0x0 DUP2 DUP2 MSTORE PUSH1 0x20 DUP2 DUP2 MSTORE PUSH1 0x40 DUP1 DUP4 KECCAK256 PUSH1 0x1 PUSH1 0x1 PUSH1 0xA0 SHL SUB DUP7 AND DUP5 MSTORE SWAP1 SWAP2 MSTORE SWAP1 KECCAK256 SLOAD PUSH1 0xFF AND ISZERO PUSH2 0x2198 JUMPI PUSH1 0x0 DUP2 DUP2 MSTORE PUSH1 0x20 DUP2 DUP2 MSTORE PUSH1 0x40 DUP1 DUP4 KECCAK256 PUSH1 0x1 PUSH1 0x1 PUSH1 0xA0 SHL SUB SWAP6 SWAP1 SWAP6 AND DUP1 DUP5 MSTORE SWAP5 SWAP1 SWAP2 MSTORE DUP2 KECCAK256 DUP1 SLOAD PUSH1 0xFF NOT AND SWAP1 SSTORE CALLER SWAP3 SWAP2 SWAP1 PUSH32 0xF6391F5C32D9C69D2A47EA670B442974B53935D1EDC7FD64EB21E047A839171B SWAP1 DUP1 LOG4 PUSH1 0x1 SWAP1 JUMP JUMPDEST PUSH1 0xFF PUSH1 0x1 SLOAD AND PUSH2 0x222D JUMPI JUMP JUMPDEST PUSH4 0xD93C0665 PUSH1 0xE0 SHL PUSH1 0x0 MSTORE PUSH1 0x4 PUSH1 0x0 REVERT JUMPDEST PUSH1 0x0 JUMPDEST DUP4 DUP2 LT PUSH2 0x2251 JUMPI POP POP PUSH1 0x0 SWAP2 ADD MSTORE JUMP JUMPDEST DUP2 DUP2 ADD MLOAD DUP4 DUP3 ADD MSTORE PUSH1 0x20 ADD PUSH2 0x2241 JUMP JUMPDEST PUSH1 0x2 DUP1 SLOAD EQ PUSH2 0x2270 JUMPI PUSH1 0x2 DUP1 SSTORE JUMP JUMPDEST PUSH4 0x3EE5AEB5 PUSH1 0xE0 SHL PUSH1 0x0 MSTORE PUSH1 0x4 PUSH1 0x0 REVERT JUMPDEST SWAP1 DUP2 MLOAD DUP2 LT ISZERO PUSH2 0x2066 JUMPI ADD PUSH1 0x20 ADD SWAP1 JUMP JUMPDEST SWAP1 PUSH1 0x0 PUSH1 0x20 SWAP2 DUP3 DUP2 MLOAD SWAP2 ADD DUP3 DUP6 GAS CALL ISZERO PUSH2 0x380 JUMPI PUSH1 0x0 MLOAD RETURNDATASIZE PUSH2 0x22E4 JUMPI POP PUSH1 0x1 PUSH1 0x1 PUSH1 0xA0 SHL SUB DUP2 AND EXTCODESIZE ISZERO JUMPDEST PUSH2 0x22C3 JUMPI POP JUMP JUMPDEST PUSH4 0x5274AFE7 PUSH1 0xE0 SHL PUSH1 0x0 SWAP1 DUP2 MSTORE PUSH1 0x1 PUSH1 0x1 PUSH1 0xA0 SHL SUB SWAP2 SWAP1 SWAP2 AND PUSH1 0x4 MSTORE PUSH1 0x24 SWAP1 REVERT JUMPDEST PUSH1 0x1 EQ ISZERO PUSH2 0x22BC JUMP INVALID 0xAD ORIGIN 0x28 0xB6 PUSH23 0xF7D3CD4284A5443F17F1962B36E491B30A40B2405849E5 SWAP8 0xBA PUSH0 0xB5 LOG2 PUSH5 0x6970667358 0x22 SLT KECCAK256 PUSH5 0x23DCA5C55B MUL PUSH13 0xC220B782EEED188C439050D034 0xC4 0xA6 0xC6 LOG1 0xEB 0x23 0x29 0x2A PUSH0 0xC7 0xBD PUSH5 0x736F6C6343 STOP ADDMOD SHR STOP CALLER 0x2F DUP8 DUP9 GT PUSH31 0x7EFF1D82E926EC794901D17C78024A50270940304540A733656F0DE84508F2 0xC7 STATICCALL SWAP13 CALLDATALOAD GT CHAINID PUSH21 0x8B3025CB78B45DF37D868E48C6A75102FECDEEE645 0xAD ORIGIN 0x28 0xB6 PUSH23 0xF7D3CD4284A5443F17F1962B36E491B30A40B2405849E5 SWAP8 0xBA PUSH0 0xB5 "
        },
        "methodIdentifiers": {
          "DEFAULT_ADMIN_ROLE()": "a217fddf",
          "LP_PAIR()": "93a013e0",
          "MANAGER_ROLE()": "ec87621c",
          "PIONE_TOKEN()": "d344f1b9",
          "POOL_LOCK()": "449b5392",
          "USDT_TOKEN()": "77b330c9",
          "addLiquidity(bytes32,uint256)": "3b57e2bc",
          "claimPioToPioneChain(uint256)": "6eba86a2",
          "claimUSDT(uint256)": "b0f9006a",
          "depositUSDT(bytes32)": "4e46d259",
          "getMinClaimPIOAmount()": "09471528",
          "getOptimalAmountPIO(uint256)": "bc339809",
          "getOptimalAmountUSDT(uint256)": "11470103",
          "getRequestIdOwner(bytes32)": "f4627a11",
          "getReserves()": "0902f1ac",
          "getRoleAdmin(bytes32)": "248a9ca3",
          "getTransactionInfo(bytes32)": "49e6b62c",
          "getUserBalances(address)": "abd3f612",
          "grantRole(bytes32,address)": "2f2ff15d",
          "handleBridgeCompleted(bytes32,address,uint256,uint256,uint256)": "5585a6fa",
          "hasRole(bytes32,address)": "91d14854",
          "pause()": "8456cb59",
          "paused()": "5c975abb",
          "pioneBridge()": "edc73dbc",
          "previewAddLiquidity(uint256,uint256)": "1cdf2dc3",
          "renounceRole(bytes32,address)": "36568abe",
          "revokeRole(bytes32,address)": "d547741f",
          "router()": "f887ea40",
          "setMinClaimPIOAmount(uint256)": "78bb5dbd",
          "setPioneBridge(address)": "721c8c0a",
          "supportsInterface(bytes4)": "01ffc9a7",
          "unpause()": "3f4ba83a"
        }
      }
    }
  }
}