{
  "_format": "hh-sol-artifact-1",
  "contractName": "PioneLiquidityManager",
  "sourceName": "contracts/PioneLiquidityManager.sol",
  "abi": [
    {
      "inputs": [
        {
          "internalType": "address",
          "name": "_pioneToken",
          "type": "address"
        },
        {
          "internalType": "address",
          "name": "_usdtToken",
          "type": "address"
        },
        {
          "internalType": "address",
          "name": "_pioneBridge",
          "type": "address"
        },
        {
          "internalType": "address",
          "name": "_router",
          "type": "address"
        },
        {
          "internalType": "address",
          "name": "_pinklock",
          "type": "address"
        }
      ],
      "stateMutability": "nonpayable",
      "type": "constructor"
    },
    {
      "inputs": [],
      "name": "AccessControlBadConfirmation",
      "type": "error"
    },
    {
      "inputs": [
        {
          "internalType": "address",
          "name": "account",
          "type": "address"
        },
        {
          "internalType": "bytes32",
          "name": "neededRole",
          "type": "bytes32"
        }
      ],
      "name": "AccessControlUnauthorizedAccount",
      "type": "error"
    },
    {
      "inputs": [],
      "name": "EnforcedPause",
      "type": "error"
    },
    {
      "inputs": [],
      "name": "ExpectedPause",
      "type": "error"
    },
    {
      "inputs": [],
      "name": "ReentrancyGuardReentrantCall",
      "type": "error"
    },
    {
      "inputs": [
        {
          "internalType": "address",
          "name": "token",
          "type": "address"
        }
      ],
      "name": "SafeERC20FailedOperation",
      "type": "error"
    },
    {
      "anonymous": false,
      "inputs": [
        {
          "indexed": true,
          "internalType": "bytes32",
          "name": "requestId",
          "type": "bytes32"
        },
        {
          "indexed": true,
          "internalType": "address",
          "name": "user",
          "type": "address"
        },
        {
          "indexed": false,
          "internalType": "uint256",
          "name": "index",
          "type": "uint256"
        }
      ],
      "name": "BridgeCompleted",
      "type": "event"
    },
    {
      "anonymous": false,
      "inputs": [
        {
          "indexed": true,
          "internalType": "bytes32",
          "name": "requestId",
          "type": "bytes32"
        },
        {
          "indexed": true,
          "internalType": "address",
          "name": "user",
          "type": "address"
        },
        {
          "indexed": false,
          "internalType": "uint256",
          "name": "amount",
          "type": "uint256"
        }
      ],
      "name": "ClaimedPIOtoPioneChain",
      "type": "event"
    },
    {
      "anonymous": false,
      "inputs": [
        {
          "indexed": true,
          "internalType": "address",
          "name": "account",
          "type": "address"
        },
        {
          "indexed": false,
          "internalType": "uint256",
          "name": "amount",
          "type": "uint256"
        }
      ],
      "name": "ClaimedUSDT",
      "type": "event"
    },
    {
      "anonymous": false,
      "inputs": [
        {
          "indexed": true,
          "internalType": "address",
          "name": "user",
          "type": "address"
        },
        {
          "indexed": true,
          "internalType": "bytes32",
          "name": "requestId",
          "type": "bytes32"
        },
        {
          "indexed": false,
          "internalType": "uint256",
          "name": "pioAmount",
          "type": "uint256"
        },
        {
          "indexed": false,
          "internalType": "uint256",
          "name": "usdtAmount",
          "type": "uint256"
        },
        {
          "indexed": false,
          "internalType": "uint256",
          "name": "liquidity",
          "type": "uint256"
        },
        {
          "indexed": false,
          "internalType": "uint256",
          "name": "slippage",
          "type": "uint256"
        }
      ],
      "name": "LiquidityAdded",
      "type": "event"
    },
    {
      "anonymous": false,
      "inputs": [
        {
          "indexed": true,
          "internalType": "address",
          "name": "user",
          "type": "address"
        },
        {
          "indexed": true,
          "internalType": "bytes32",
          "name": "requestId",
          "type": "bytes32"
        },
        {
          "indexed": false,
          "internalType": "uint256",
          "name": "lockId",
          "type": "uint256"
        },
        {
          "indexed": false,
          "internalType": "uint256",
          "name": "liquidity",
          "type": "uint256"
        },
        {
          "indexed": false,
          "internalType": "uint256",
          "name": "unlockDate",
          "type": "uint256"
        }
      ],
      "name": "LiquidityLocked",
      "type": "event"
    },
    {
      "anonymous": false,
      "inputs": [
        {
          "indexed": false,
          "internalType": "address",
          "name": "account",
          "type": "address"
        }
      ],
      "name": "Paused",
      "type": "event"
    },
    {
      "anonymous": false,
      "inputs": [
        {
          "indexed": true,
          "internalType": "address",
          "name": "oldAddress",
          "type": "address"
        },
        {
          "indexed": true,
          "internalType": "address",
          "name": "newAddress",
          "type": "address"
        }
      ],
      "name": "PioneBridgeUpdated",
      "type": "event"
    },
    {
      "anonymous": false,
      "inputs": [
        {
          "indexed": true,
          "internalType": "bytes32",
          "name": "role",
          "type": "bytes32"
        },
        {
          "indexed": true,
          "internalType": "bytes32",
          "name": "previousAdminRole",
          "type": "bytes32"
        },
        {
          "indexed": true,
          "internalType": "bytes32",
          "name": "newAdminRole",
          "type": "bytes32"
        }
      ],
      "name": "RoleAdminChanged",
      "type": "event"
    },
    {
      "anonymous": false,
      "inputs": [
        {
          "indexed": true,
          "internalType": "bytes32",
          "name": "role",
          "type": "bytes32"
        },
        {
          "indexed": true,
          "internalType": "address",
          "name": "account",
          "type": "address"
        },
        {
          "indexed": true,
          "internalType": "address",
          "name": "sender",
          "type": "address"
        }
      ],
      "name": "RoleGranted",
      "type": "event"
    },
    {
      "anonymous": false,
      "inputs": [
        {
          "indexed": true,
          "internalType": "bytes32",
          "name": "role",
          "type": "bytes32"
        },
        {
          "indexed": true,
          "internalType": "address",
          "name": "account",
          "type": "address"
        },
        {
          "indexed": true,
          "internalType": "address",
          "name": "sender",
          "type": "address"
        }
      ],
      "name": "RoleRevoked",
      "type": "event"
    },
    {
      "anonymous": false,
      "inputs": [
        {
          "indexed": false,
          "internalType": "address",
          "name": "account",
          "type": "address"
        }
      ],
      "name": "Unpaused",
      "type": "event"
    },
    {
      "anonymous": false,
      "inputs": [
        {
          "indexed": false,
          "internalType": "uint256",
          "name": "oldAmount",
          "type": "uint256"
        },
        {
          "indexed": false,
          "internalType": "uint256",
          "name": "newAmount",
          "type": "uint256"
        }
      ],
      "name": "UpdatedMinClaimPIOAmount",
      "type": "event"
    },
    {
      "anonymous": false,
      "inputs": [
        {
          "indexed": true,
          "internalType": "bytes32",
          "name": "requestId",
          "type": "bytes32"
        },
        {
          "indexed": true,
          "internalType": "address",
          "name": "user",
          "type": "address"
        },
        {
          "indexed": false,
          "internalType": "uint256",
          "name": "amount",
          "type": "uint256"
        }
      ],
      "name": "UserDepositUSDT",
      "type": "event"
    },
    {
      "inputs": [],
      "name": "DEFAULT_ADMIN_ROLE",
      "outputs": [
        {
          "internalType": "bytes32",
          "name": "",
          "type": "bytes32"
        }
      ],
      "stateMutability": "view",
      "type": "function"
    },
    {
      "inputs": [],
      "name": "LP_PAIR",
      "outputs": [
        {
          "internalType": "address",
          "name": "",
          "type": "address"
        }
      ],
      "stateMutability": "view",
      "type": "function"
    },
    {
      "inputs": [],
      "name": "MANAGER_ROLE",
      "outputs": [
        {
          "internalType": "bytes32",
          "name": "",
          "type": "bytes32"
        }
      ],
      "stateMutability": "view",
      "type": "function"
    },
    {
      "inputs": [],
      "name": "PIONE_TOKEN",
      "outputs": [
        {
          "internalType": "address",
          "name": "",
          "type": "address"
        }
      ],
      "stateMutability": "view",
      "type": "function"
    },
    {
      "inputs": [],
      "name": "POOL_LOCK",
      "outputs": [
        {
          "internalType": "address",
          "name": "",
          "type": "address"
        }
      ],
      "stateMutability": "view",
      "type": "function"
    },
    {
      "inputs": [],
      "name": "USDT_TOKEN",
      "outputs": [
        {
          "internalType": "address",
          "name": "",
          "type": "address"
        }
      ],
      "stateMutability": "view",
      "type": "function"
    },
    {
      "inputs": [
        {
          "internalType": "bytes32",
          "name": "requestId",
          "type": "bytes32"
        },
        {
          "internalType": "uint256",
          "name": "slippagePercent",
          "type": "uint256"
        }
      ],
      "name": "addLiquidity",
      "outputs": [
        {
          "internalType": "bool",
          "name": "",
          "type": "bool"
        }
      ],
      "stateMutability": "nonpayable",
      "type": "function"
    },
    {
      "inputs": [
        {
          "internalType": "uint256",
          "name": "amount",
          "type": "uint256"
        }
      ],
      "name": "claimPioToPioneChain",
      "outputs": [
        {
          "internalType": "bool",
          "name": "",
          "type": "bool"
        }
      ],
      "stateMutability": "nonpayable",
      "type": "function"
    },
    {
      "inputs": [
        {
          "internalType": "uint256",
          "name": "amount",
          "type": "uint256"
        }
      ],
      "name": "claimUSDT",
      "outputs": [
        {
          "internalType": "bool",
          "name": "",
          "type": "bool"
        }
      ],
      "stateMutability": "nonpayable",
      "type": "function"
    },
    {
      "inputs": [
        {
          "internalType": "bytes32",
          "name": "requestId",
          "type": "bytes32"
        }
      ],
      "name": "depositUSDT",
      "outputs": [
        {
          "internalType": "bool",
          "name": "",
          "type": "bool"
        }
      ],
      "stateMutability": "nonpayable",
      "type": "function"
    },
    {
      "inputs": [],
      "name": "getMinClaimPIOAmount",
      "outputs": [
        {
          "internalType": "uint256",
          "name": "",
          "type": "uint256"
        }
      ],
      "stateMutability": "view",
      "type": "function"
    },
    {
      "inputs": [
        {
          "internalType": "uint256",
          "name": "usdtAmount",
          "type": "uint256"
        }
      ],
      "name": "getOptimalAmountPIO",
      "outputs": [
        {
          "internalType": "uint256",
          "name": "optimalPioAmount",
          "type": "uint256"
        }
      ],
      "stateMutability": "view",
      "type": "function"
    },
    {
      "inputs": [
        {
          "internalType": "uint256",
          "name": "pioAmount",
          "type": "uint256"
        }
      ],
      "name": "getOptimalAmountUSDT",
      "outputs": [
        {
          "internalType": "uint256",
          "name": "optimalUsdtAmount",
          "type": "uint256"
        }
      ],
      "stateMutability": "view",
      "type": "function"
    },
    {
      "inputs": [
        {
          "internalType": "bytes32",
          "name": "requestId",
          "type": "bytes32"
        }
      ],
      "name": "getRequestIdOwner",
      "outputs": [
        {
          "internalType": "address",
          "name": "",
          "type": "address"
        }
      ],
      "stateMutability": "view",
      "type": "function"
    },
    {
      "inputs": [],
      "name": "getReserves",
      "outputs": [
        {
          "internalType": "uint256",
          "name": "reserveUsdt",
          "type": "uint256"
        },
        {
          "internalType": "uint256",
          "name": "reservePione",
          "type": "uint256"
        }
      ],
      "stateMutability": "view",
      "type": "function"
    },
    {
      "inputs": [
        {
          "internalType": "bytes32",
          "name": "role",
          "type": "bytes32"
        }
      ],
      "name": "getRoleAdmin",
      "outputs": [
        {
          "internalType": "bytes32",
          "name": "",
          "type": "bytes32"
        }
      ],
      "stateMutability": "view",
      "type": "function"
    },
    {
      "inputs": [
        {
          "internalType": "bytes32",
          "name": "requestId",
          "type": "bytes32"
        }
      ],
      "name": "getTransactionInfo",
      "outputs": [
        {
          "internalType": "uint256",
          "name": "pioAmount",
          "type": "uint256"
        },
        {
          "internalType": "uint256",
          "name": "usdtAmount",
          "type": "uint256"
        },
        {
          "internalType": "uint256",
          "name": "liquidityAmount",
          "type": "uint256"
        },
        {
          "internalType": "bool",
          "name": "_depositUSDT",
          "type": "bool"
        },
        {
          "internalType": "uint256",
          "name": "pinkLockId",
          "type": "uint256"
        },
        {
          "internalType": "uint256",
          "name": "lockMonths",
          "type": "uint256"
        }
      ],
      "stateMutability": "view",
      "type": "function"
    },
    {
      "inputs": [
        {
          "internalType": "address",
          "name": "account",
          "type": "address"
        }
      ],
      "name": "getUserBalances",
      "outputs": [
        {
          "internalType": "uint256",
          "name": "pioBalance",
          "type": "uint256"
        },
        {
          "internalType": "uint256",
          "name": "usdtBalance",
          "type": "uint256"
        }
      ],
      "stateMutability": "view",
      "type": "function"
    },
    {
      "inputs": [
        {
          "internalType": "bytes32",
          "name": "role",
          "type": "bytes32"
        },
        {
          "internalType": "address",
          "name": "account",
          "type": "address"
        }
      ],
      "name": "grantRole",
      "outputs": [],
      "stateMutability": "nonpayable",
      "type": "function"
    },
    {
      "inputs": [
        {
          "internalType": "bytes32",
          "name": "requestId",
          "type": "bytes32"
        },
        {
          "internalType": "address",
          "name": "account",
          "type": "address"
        },
        {
          "internalType": "uint256",
          "name": "amountPIO",
          "type": "uint256"
        },
        {
          "internalType": "uint256",
          "name": "amountUSDT",
          "type": "uint256"
        },
        {
          "internalType": "uint256",
          "name": "lockMonths",
          "type": "uint256"
        }
      ],
      "name": "handleBridgeCompleted",
      "outputs": [],
      "stateMutability": "nonpayable",
      "type": "function"
    },
    {
      "inputs": [
        {
          "internalType": "bytes32",
          "name": "role",
          "type": "bytes32"
        },
        {
          "internalType": "address",
          "name": "account",
          "type": "address"
        }
      ],
      "name": "hasRole",
      "outputs": [
        {
          "internalType": "bool",
          "name": "",
          "type": "bool"
        }
      ],
      "stateMutability": "view",
      "type": "function"
    },
    {
      "inputs": [],
      "name": "pause",
      "outputs": [],
      "stateMutability": "nonpayable",
      "type": "function"
    },
    {
      "inputs": [],
      "name": "paused",
      "outputs": [
        {
          "internalType": "bool",
          "name": "",
          "type": "bool"
        }
      ],
      "stateMutability": "view",
      "type": "function"
    },
    {
      "inputs": [],
      "name": "pioneBridge",
      "outputs": [
        {
          "internalType": "address",
          "name": "",
          "type": "address"
        }
      ],
      "stateMutability": "view",
      "type": "function"
    },
    {
      "inputs": [
        {
          "internalType": "uint256",
          "name": "pioneAmount",
          "type": "uint256"
        },
        {
          "internalType": "uint256",
          "name": "usdtAmount",
          "type": "uint256"
        }
      ],
      "name": "previewAddLiquidity",
      "outputs": [
        {
          "internalType": "uint256",
          "name": "actualPioAmount",
          "type": "uint256"
        },
        {
          "internalType": "uint256",
          "name": "actualUsdtAmount",
          "type": "uint256"
        },
        {
          "internalType": "uint256",
          "name": "estimatedLiquidity",
          "type": "uint256"
        },
        {
          "internalType": "uint256",
          "name": "refundPio",
          "type": "uint256"
        },
        {
          "internalType": "uint256",
          "name": "refundUsdt",
          "type": "uint256"
        }
      ],
      "stateMutability": "view",
      "type": "function"
    },
    {
      "inputs": [
        {
          "internalType": "bytes32",
          "name": "role",
          "type": "bytes32"
        },
        {
          "internalType": "address",
          "name": "callerConfirmation",
          "type": "address"
        }
      ],
      "name": "renounceRole",
      "outputs": [],
      "stateMutability": "nonpayable",
      "type": "function"
    },
    {
      "inputs": [
        {
          "internalType": "bytes32",
          "name": "role",
          "type": "bytes32"
        },
        {
          "internalType": "address",
          "name": "account",
          "type": "address"
        }
      ],
      "name": "revokeRole",
      "outputs": [],
      "stateMutability": "nonpayable",
      "type": "function"
    },
    {
      "inputs": [],
      "name": "router",
      "outputs": [
        {
          "internalType": "contract IPancakeRouter02",
          "name": "",
          "type": "address"
        }
      ],
      "stateMutability": "view",
      "type": "function"
    },
    {
      "inputs": [
        {
          "internalType": "uint256",
          "name": "minAmount",
          "type": "uint256"
        }
      ],
      "name": "setMinClaimPIOAmount",
      "outputs": [],
      "stateMutability": "nonpayable",
      "type": "function"
    },
    {
      "inputs": [
        {
          "internalType": "address",
          "name": "_pioneBridge",
          "type": "address"
        }
      ],
      "name": "setPioneBridge",
      "outputs": [],
      "stateMutability": "nonpayable",
      "type": "function"
    },
    {
      "inputs": [
        {
          "internalType": "bytes4",
          "name": "interfaceId",
          "type": "bytes4"
        }
      ],
      "name": "supportsInterface",
      "outputs": [
        {
          "internalType": "bool",
          "name": "",
          "type": "bool"
        }
      ],
      "stateMutability": "view",
      "type": "function"
    },
    {
      "inputs": [],
      "name": "unpause",
      "outputs": [],
      "stateMutability": "nonpayable",
      "type": "function"
    }
  ],
  "bytecode": "0x61010080604052346103545760a08161292580380380916100208285610408565b8339810103126103545761003381610441565b9061004060208201610441565b9161004d60408301610441565b92610066608061005f60608601610441565b9401610441565b6001600255916001600160a01b0381161515806103f6575b806103e4575b806103d2575b1561039b5760805260a05260e052600380546001600160a01b0319166001600160a01b03831690811790915560405163c45a015560e01b815290602090829060049082905afa9081156102b657600091610361575b5060805160a05160405163e6a4390560e01b81526001600160a01b03928316600482015290821660248201529160209183916044918391165afa9081156102b657600091610322575b5060c08190526001600160a01b0316156102dd5760805160405163095ea7b360e01b81526001600160a01b0383811660048301526000196024830152909160209183916044918391600091165af180156102b6576000926020926101c7926102c2575b5060a05160405163095ea7b360e01b81526001600160a01b03928316600482015260001960248201529485939190921691839182906044820190565b03925af180156102b657610289575b506101e03361046d565b506101ea336104e9565b50600480546001600160a01b0319166001600160a01b0392909216919091179055670de0b6b3a7640000600555604051612343908161058282396080518181816102a20152611303015260a05181818161040d0152818161073c01528181610ec9015281816113310152611e82015260c0518181816105660152818161145401528181611afc0152611dfc015260e05181818161109b015261141c0152f35b6102aa9060203d6020116102af575b6102a28183610408565b810190610455565b6101d6565b503d610298565b6040513d6000823e3d90fd5b6102d890843d86116102af576102a28183610408565b61018b565b60405162461bcd60e51b815260206004820152601660248201527f4c50207061697220646f6573206e6f74206578697374000000000000000000006044820152606490fd5b90506020813d602011610359575b8161033d60209383610408565b810103126103545761034e90610441565b38610128565b600080fd5b3d9150610330565b90506020813d602011610393575b8161037c60209383610408565b810103126103545761038d90610441565b386100df565b3d915061036f565b60405162461bcd60e51b815260206004820152600f60248201526e496e76616c6964206164647265737360881b6044820152606490fd5b506001600160a01b038316151561008a565b506001600160a01b0384161515610084565b506001600160a01b038216151561007e565b601f909101601f19168101906001600160401b0382119082101761042b57604052565b634e487b7160e01b600052604160045260246000fd5b51906001600160a01b038216820361035457565b90816020910312610354575180151581036103545790565b6001600160a01b0381166000908152600080516020612905833981519152602052604090205460ff166104e3576001600160a01b0316600081815260008051602061290583398151915260205260408120805460ff191660011790553391906000805160206128c58339815191528180a4600190565b50600090565b6001600160a01b03811660009081526000805160206128e5833981519152602052604090205460ff166104e3576001600160a01b031660008181526000805160206128e583398151915260205260408120805460ff191660011790553391907f241ecf16d79d0f8dbfb92cbc07fe17840425976cf0667f022fe9877caa831b08906000805160206128c58339815191529080a460019056fe608080604052600436101561001357600080fd5b60003560e01c90816301ffc9a714611d38575080630902f1ac14611d115780630947152814611cf35780631147010314611c955780631cdf2dc314611a57578063248a9ca314611a225780632f2ff15d146119e257806336568abe1461199c5780633b57e2bc146111545780633f4ba83a146110ca578063449b53921461108557806349e6b62c14610f825780634e46d25914610d8f5780635585a6fa14610a325780635c975abb14610a0f5780636eba86a214610844578063721c8c0a1461076b57806377b330c91461072657806378bb5dbd1461065c5780638456cb59146105e257806391d148541461059557806393a013e014610550578063a217fddf14610534578063abd3f612146104f1578063b0f9006a1461038c578063bc339809146102d1578063d344f1b91461028c578063d547741f14610245578063ec87621c1461020a578063edc73dbc146101e1578063f4627a11146101ad5763f887ea401461017f57600080fd5b346101a85760003660031901126101a8576003546040516001600160a01b039091168152602090f35b600080fd5b346101a85760203660031901126101a8576004356000526007602052602060018060a01b0360406000205416604051908152f35b346101a85760003660031901126101a8576004546040516001600160a01b039091168152602090f35b346101a85760003660031901126101a85760206040517f241ecf16d79d0f8dbfb92cbc07fe17840425976cf0667f022fe9877caa831b088152f35b346101a85760403660031901126101a85761028a600435610264611d8b565b9061028561028082600052600060205260016040600020015490565b6120d9565b61219f565b005b346101a85760003660031901126101a8576040517f00000000000000000000000000000000000000000000000000000000000000006001600160a01b03168152602090f35b346101a85760203660031901126101a85761033060206102ef611ded565b600354604051632b58577b60e21b8152600480359082015260248101939093526044830191909152909283916001600160a01b031690829081906064820190565b03915afa80156103805760009061034d575b602090604051908152f35b506020813d602011610378575b8161036760209383611db7565b810103126101a85760209051610342565b3d915061035a565b6040513d6000823e3d90fd5b346101a85760203660031901126101a8576004356103a8612261565b6103b0612221565b80156104bb573360005260066020526001604060002001805482811061047657826103da91611f50565b905560405163a9059cbb60e01b60208201523360248201526044808201839052815261043a9061040b606482611db7565b7f00000000000000000000000000000000000000000000000000000000000000006001600160a01b0316612292565b6040519081527f4a871023ddab2a4d3bfcfeeeca493e98d3ef746b67db88347ad53d14f6a532bd60203392a26001600255602060405160018152f35b60405162461bcd60e51b815260206004820152601960248201527f496e73756666696369656e742062616c616e63652055534454000000000000006044820152606490fd5b60405162461bcd60e51b815260206004820152600e60248201526d1a5b9d985b1a5908185b5bdd5b9d60921b6044820152606490fd5b346101a85760203660031901126101a8576001600160a01b03610512611da1565b1660005260066020526040806000206001815491015482519182526020820152f35b346101a85760003660031901126101a857602060405160008152f35b346101a85760003660031901126101a8576040517f00000000000000000000000000000000000000000000000000000000000000006001600160a01b03168152602090f35b346101a85760403660031901126101a8576105ae611d8b565b600435600052600060205260406000209060018060a01b0316600052602052602060ff604060002054166040519015158152f35b346101a85760003660031901126101a8573360009081526000805160206122ee833981519152602052604090205461061c9060ff1661207c565b610624612221565b600160ff19815416176001557f62e78cea01bee320cd4e420270b5ea74000d11b0c9f74754ebdbfc544b05a2586020604051338152a1005b346101a85760203660031901126101a8573360009081526000805160206122ee83398151915260205260409020546004359061069a9060ff1661207c565b80156106d7577fb29db3ed4be00bb9125746733a49fa8e4bc0d6c1cba2d0e3c0b3d72801c2752760406005548151908152836020820152a1600555005b60405162461bcd60e51b815260206004820152602160248201527f4d696e20616d6f756e74206d7573742062652067726561746572207468616e206044820152600360fc1b6064820152608490fd5b346101a85760003660031901126101a8576040517f00000000000000000000000000000000000000000000000000000000000000006001600160a01b03168152602090f35b346101a85760203660031901126101a857610784611da1565b3360009081526000805160206122ee83398151915260205260409020546107ad9060ff1661207c565b6001600160a01b031680156107ff57600454816001600160a01b0382167fec54b369953ed98493762cc0b6b40fa246ab8f4a0f507f6c268b9098e0fb1d50600080a36001600160a01b03191617600455005b60405162461bcd60e51b815260206004820152601b60248201527f496e76616c69642050696f6e65427269646765206164647265737300000000006044820152606490fd5b346101a85760203660031901126101a857600435610860612261565b610868612221565b80156109d15760055481106109955733600052600660205260406000208054828110610950578261089891611f50565b90556000602060018060a01b036004541660646040518094819363065733d160e31b83523360048401528760248401526113d860448401525af19081156103805760009161091e575b506040519182527fe97754e9280514bb5691c3dee7edef6951965134bbe0bd8139a447208aaced0260203393a36001600255602060405160018152f35b90506020813d602011610948575b8161093960209383611db7565b810103126101a85751826108e1565b3d915061092c565b60405162461bcd60e51b815260206004820152601860248201527f496e73756666696369656e742062616c616e63652050494f00000000000000006044820152606490fd5b60405162461bcd60e51b8152602060048201526014602482015273416d6f756e742062656c6f77206d696e696d756d60601b6044820152606490fd5b60405162461bcd60e51b81526020600482015260166024820152750416d6f756e742050494f206d757374206265203e20360541b6044820152606490fd5b346101a85760003660031901126101a857602060ff600154166040519015158152f35b346101a85760a03660031901126101a857600435610a4e611d8b565b3360009081527fe84508f2c7fa9c351146748b3025cb78b45df37d868e48c6a75102fecdeee645602052604090205460443592916084359160ff1615610d5c57610a96612221565b60048054604051635617249b60e11b8152918201859052602090829060249082906001600160a01b03165afa90811561038057600091610d2d575b5015610ce8576000838152600760205260409020546001600160a01b0316610cab578115610c5b5760018060a01b0316928360005260066020526040600020916040519260c0840184811067ffffffffffffffff821117610c455760405282845260208401606435815260408501936000855260608601956000875260808101906000825260a0810195865288600052600760205260406000208a6bffffffffffffffffffffffff60a01b82541617905560038501958654968a600052600487016020528760406000205568010000000000000000881015610c455787610bbd9160018201815561204a565b939093610c2f577f3a5e0271cd79026f0993aa13e6dd17d1f34284aa2340c1d2c33653b9a4433ee999602099610c2497600595518755516001870155516002860155600385019051151560ff801983541691161790555160048401555191015582546120b4565b9055604051908152a3005b634e487b7160e01b600052600060045260246000fd5b634e487b7160e01b600052604160045260246000fd5b60405162461bcd60e51b815260206004820152602260248201527f4c6f636b206d6f6e746873206d7573742062652067726561746572207468616e604482015261020360f41b6064820152608490fd5b60405162461bcd60e51b815260206004820152601560248201527414995c5d595cdd125908185b1c9958591e481cd95d605a1b6044820152606490fd5b60405162461bcd60e51b815260206004820152601960248201527f5472616e73616374696f6e206e6f7420636f6d706c65746564000000000000006044820152606490fd5b610d4f915060203d602011610d55575b610d478183611db7565b8101906120c1565b85610ad1565b503d610d3d565b60405162461bcd60e51b815260206004820152600b60248201526a2737ba1036b0b730b3b2b960a91b6044820152606490fd5b346101a85760203660031901126101a857600435610dab612261565b610db3612221565b600081815260076020526040902054610dd6906001600160a01b03161515611f70565b806000526007602052610df760018060a01b03604060002054163314611fbc565b33600052600660205260ff6003610e4a60406000208460005260048101602052826040600020549101610e2c81548310612008565b610e456001610e3b848461204a565b5001541515612008565b61204a565b50015416610f445733600052600660205260406000209080600052600482016020526001604060002054926003610eee8183019584610e89828961204a565b50015496610e456040516323b872dd60e01b602082015233602482015230604482015289606482015260648152610ec1608482611db7565b878060a01b037f000000000000000000000000000000000000000000000000000000000000000016612292565b50018260ff1982541617905501610f068382546120b4565b90556040519182527f30fc86fb0bd3162e3aaba39b31fea8f708d17d861dc141db29fd9d47beb8ce3a60203393a36001600255602060405160018152f35b60405162461bcd60e51b8152602060048201526016602482015275105b1c9958591e4819195c1bdcda5d1959081554d11560521b6044820152606490fd5b346101a85760203660031901126101a857600435600081815260076020526040902054610fb9906001600160a01b03161515611f70565b80600052600760205260018060a01b036040600020541660005260066020526040600020906000526004810160205260036040600020549101805482101561104d5760c0916110079161204a565b50805490600181015490600281015460ff6003830154169060056004840154930154936040519586526020860152604085015215156060840152608083015260a0820152f35b60405162461bcd60e51b815260206004820152601060248201526f24b73b30b634b2103837b9b4ba34b7b760811b6044820152606490fd5b346101a85760003660031901126101a8576040517f00000000000000000000000000000000000000000000000000000000000000006001600160a01b03168152602090f35b346101a85760003660031901126101a8573360009081526000805160206122ee83398151915260205260409020546111049060ff1661207c565b60015460ff8116156111435760ff19166001557f5db9ee0a495bf2e6ff9c91a7834c1ba4fdd244a5e8aa4e537bd38aeae4b073aa6020604051338152a1005b638dfc202b60e01b60005260046000fd5b346101a85760403660031901126101a857602435600435611173612221565b600081815260076020526040902054611196906001600160a01b03161515611f70565b6000818152600760205260409020546111b9906001600160a01b03163314611fbc565b3360005260066020526040600020816000526004810160205260036040600020549101906111e982548210612008565b6111f86001610e3b838561204a565b6002611204828461204a565b50015461194d5761121960039160ff9361204a565b500154161561191057336000526006602052604060002090806000526004820160205260406000205492605a81116118d757600383019261125a858561204a565b50546001611268878761204a565b5001549282549382851061189d57600184018054918083106118645783606403966064881161184e576112c38260646112a18b8a611f5d565b04956112bc8960646112b560009e86611f5d565b0495611f50565b8a55611f50565b83556003544261012c810195916001600160a01b031690861061183a57606092918a61010492604051988995869462e8e33760e81b865260018060a01b037f000000000000000000000000000000000000000000000000000000000000000016600487015260018060a01b037f00000000000000000000000000000000000000000000000000000000000000001660248701528d6044870152896064870152608486015260a48501523060c485015260e48401525af195861561182f579088959493929188958c8c8b968c9b6117d4575b50918a60026113a78b948a98979661204a565b500155600283016113b98c82546120b4565b90558181116117bd575b50505081811161179f575b505050604051928352602083015283604083015260608201527fef15d1205ede66926e7d68d76794bbca9b64dff11b1596bb376ed957125311ec60803392a360405163095ea7b360e01b81527f00000000000000000000000000000000000000000000000000000000000000006001600160a01b038181166004840152602483018490527f0000000000000000000000000000000000000000000000000000000000000000169690959091602081604481888c5af1801561179457611777575b50600561149b838361204a565b5001548062278d00029062278d00820403611763576114bd90979697426120b4565b96604096888851926114cf8a85611db7565b601084526f181899199a1a9b1b9c1cb0b131b232b360811b602085015286888b516114fa8d82611db7565b600681528c6020820197601f198201368a37835b6003811061167f5750509560e4916115bf886115786002603560209c51809e61155b8f8301987403d9136111d10112824a7902628102637b1b5b2b91605d1b8a525180928585019061223e565b810161227d60f01b8382015203018d601d1982019052018c611db7565b51998a9889978895630727935760e01b87523360048801526024870152600160448701526064860152608485015260c060a48501525180928160c48601528585019061223e565b601f01601f191681010301926001600160a01b03165af1948515611674578095611637575b505091836004611618602099947f1c2fac9a217b58d9184feaeea4f883f176e185406b96166fbcad47dc048611119661204a565b5001558551938452602084015260408301523391606090a35160018152f35b90919294506020823d60201161166c575b8161165560209383611db7565b8101031261166957505192908060046115e4565b80fd5b3d9150611648565b8751903d90823e3d90fd5b935093505092949350806002036002811161174f576001600160fd1b038116810361174f57339060031b1c60ff60f81b6116bf600f8360041c1685612281565b5116908260011b918383046002148415171561173b578c1a6116e18387612281565b536001600160f81b0319906116f990600f1685612281565b5116600182018092116117275790611717600193928d1a9186612281565b53018c9394928c8a938c9361150e565b634e487b7160e01b8c52601160045260248cfd5b634e487b7160e01b8d52601160045260248dfd5b634e487b7160e01b8b52601160045260248bfd5b634e487b7160e01b85526011600452602485fd5b61178f9060203d602011610d5557610d478183611db7565b61148e565b6040513d87823e3d90fd5b6117b3916117ac91611f50565b82546120b4565b90558981816113ce565b6117ca916117ac91611f50565b90558c86816113c3565b9599505050955092509295506060813d606011611827575b816117f960609383611db7565b810103126118235780516020820151604090920151968996919590949293919291908c8c86611394565b8680fd5b3d91506117ec565b6040513d89823e3d90fd5b634e487b7160e01b8a52601160045260248afd5b634e487b7160e01b600052601160045260246000fd5b60405162461bcd60e51b8152602060048201526011602482015270125b9cdd59999a58da595b9d081554d115607a1b6044820152606490fd5b60405162461bcd60e51b8152602060048201526012602482015271496e73756666696369656e742050494f4e4560701b6044820152606490fd5b60405162461bcd60e51b81526020600482015260116024820152700a6d8d2e0e0c2ceca40e8dede40d0d2ced607b1b6044820152606490fd5b60405162461bcd60e51b81526020600482015260156024820152741554d115081b9bdd081c1c9bdd9a591959081e595d605a1b6044820152606490fd5b60405162461bcd60e51b815260206004820152602160248201527f4164646974696f6e616c206c69717569646974792072657175657374206d61646044820152606560f81b6064820152608490fd5b346101a85760403660031901126101a8576119b5611d8b565b336001600160a01b038216036119d15761028a9060043561219f565b63334bd91960e11b60005260046000fd5b346101a85760403660031901126101a85761028a600435611a01611d8b565b90611a1d61028082600052600060205260016040600020015490565b612114565b346101a85760203660031901126101a8576020611a4f600435600052600060205260016040600020015490565b604051908152f35b346101a85760403660031901126101a8576004356000602435611a78611ded565b600354604051632b58577b60e21b81526004810187905260248101839052604481018490529195919491926001600160a01b0390911690602086606481855afa958615611c8a57908792918497611c4d575b50858711611bb15750505050611ae290928092611f50565b906000905b6040516318160ddd60e01b81526020816004817f00000000000000000000000000000000000000000000000000000000000000006001600160a01b03165afa801561038057600090611b7d575b611b3f915085611f5d565b948015611b675760a09504906040519485526020850152604084015260608301526080820152f35b634e487b7160e01b600052601260045260246000fd5b506020813d602011611ba9575b81611b9760209383611db7565b810103126101a857611b3f9051611b34565b3d9150611b8a565b604051632b58577b60e21b815260048101879052602481019190915260448101929092529394509192602090839060649082905afa908115611c41578091611c0a575b50611c029150809392611f50565b600091611ae7565b90506020823d602011611c39575b81611c2560209383611db7565b810103126116695750611c02905185611bf4565b3d9150611c18565b604051903d90823e3d90fd5b91925095506020813d602011611c82575b81611c6b60209383611db7565b81010312611c7e57908691519588611aca565b8280fd5b3d9150611c5e565b6040513d85823e3d90fd5b346101a85760203660031901126101a8576103306020611cb3611ded565b600354604051632b58577b60e21b81526004803590820152602481019290925260448201929092529283916001600160a01b031690829081906064820190565b346101a85760003660031901126101a8576020600554604051908152f35b346101a85760003660031901126101a8576040611d2c611ded565b82519182526020820152f35b346101a85760203660031901126101a8576004359063ffffffff60e01b82168092036101a857602091637965db0b60e01b8114908115611d7a575b5015158152f35b6301ffc9a760e01b14905083611d73565b602435906001600160a01b03821682036101a857565b600435906001600160a01b03821682036101a857565b90601f8019910116810190811067ffffffffffffffff821117610c4557604052565b51906001600160701b03821682036101a857565b604051630240bc6b60e21b81527f00000000000000000000000000000000000000000000000000000000000000006001600160a01b031690606081600481855afa908115610380576000908192611ef6575b5060206001600160701b03806004931693169360405192838092630dfe168160e01b82525afa90811561038057600091611eb0575b506001600160a01b039081167f000000000000000000000000000000000000000000000000000000000000000090911603611eac5791565b9091565b6020813d602011611eee575b81611ec960209383611db7565b81010312611eea5751906001600160a01b0382168203611669575038611e74565b5080fd5b3d9150611ebc565b91506060823d606011611f48575b81611f1160609383611db7565b8101031261166957611f2282611dd9565b906040611f3160208501611dd9565b93015163ffffffff81160361166957506020611e3f565b3d9150611f04565b9190820391821161184e57565b8181029291811591840414171561184e57565b15611f7757565b60405162461bcd60e51b815260206004820152601860248201527f52657175657374496420646f6573206e6f7420657869737400000000000000006044820152606490fd5b15611fc357565b60405162461bcd60e51b815260206004820152601d60248201527f4e6f7420746865206f776e6572206f66207468697320726571756573740000006044820152606490fd5b1561200f57565b60405162461bcd60e51b815260206004820152601360248201527224b73b30b634b2103a3930b739b0b1ba34b7b760691b6044820152606490fd5b8054821015612066576000526006602060002091020190600090565b634e487b7160e01b600052603260045260246000fd5b1561208357565b60405162461bcd60e51b81526020600482015260096024820152682737ba1037bbb732b960b91b6044820152606490fd5b9190820180921161184e57565b908160209103126101a8575180151581036101a85790565b60008181526020818152604080832033845290915290205460ff16156120fc5750565b63e2517d3f60e01b6000523360045260245260446000fd5b6000818152602081815260408083206001600160a01b038616845290915290205460ff16612198576000818152602081815260408083206001600160a01b0395909516808452949091528120805460ff19166001179055339291907f2f8788117e7eff1d82e926ec794901d17c78024a50270940304540a733656f0d9080a4600190565b5050600090565b6000818152602081815260408083206001600160a01b038616845290915290205460ff1615612198576000818152602081815260408083206001600160a01b0395909516808452949091528120805460ff19169055339291907ff6391f5c32d9c69d2a47ea670b442974b53935d1edc7fd64eb21e047a839171b9080a4600190565b60ff6001541661222d57565b63d93c066560e01b60005260046000fd5b60005b8381106122515750506000910152565b8181015183820152602001612241565b60028054146122705760028055565b633ee5aeb560e01b60005260046000fd5b908151811015612066570160200190565b906000602091828151910182855af115610380576000513d6122e457506001600160a01b0381163b155b6122c35750565b635274afe760e01b60009081526001600160a01b0391909116600452602490fd5b600114156122bc56fead3228b676f7d3cd4284a5443f17f1962b36e491b30a40b2405849e597ba5fb5a26469706673582212206423dca5c55b026cc220b782eeed188c439050d034c4a6c6a1eb23292a5fc7bd64736f6c634300081c00332f8788117e7eff1d82e926ec794901d17c78024a50270940304540a733656f0de84508f2c7fa9c351146748b3025cb78b45df37d868e48c6a75102fecdeee645ad3228b676f7d3cd4284a5443f17f1962b36e491b30a40b2405849e597ba5fb5",
  "linkReferences": {},
  "deployedLinkReferences": {}
}